:020000040003F7
:10C00000B03F002055C303006FC3030071C303009A
:10C010000000000000000000000000000000000020
:10C0200000000000000000000000000073C30300D7
:10C03000000000000000000075C3030077C3030088
:10C0400079C3030079C303006BC9030079C30300FC
:10C0500079C30300000000002FC7030079C3030069
:10C0600079C3030079C3030079C3030079C30300D4
:10C0700079C3030079C3030079C3030079C30300C4
:10C0800079C3030067DC030079C3030079C30300AD
:10C090007DDC030079C303000DEA030079C30300CC
:10C0A00079C3030079C30300000000000000000012
:10C0B0000000000000000000000000000000000080
:10C0C0000348854602F004FD00480047DDC1030037
:10C0D000B03F0020401E00BF00BF00BF00BF00BF38
:10C0E00000BF00BF00BF00BF00BF00BF00BFF1D155
:10C0F00070470000056885F308884068FF2464B233
:10C10000EFF30585002D01D1A646004725460646DA
:10C1100021273FBAF0B40024002500260027F0B400
:10C12000F92040B200470000401E00BF00BF00BF22
:10C1300000BF00BF00BF00BF00BF00BF00BF00BF07
:10C1400000BFF1D1704700000A4610B501467248A1
:10C1500001F070FB10BD10B500F081FD10BD10B5F1
:10C160006E4C86B01ECC03946C460EC4002807D0DB
:10C17000684618DF002803D00022114601F05AFB60
:10C180000F20800313DF002803D00022114601F0A6
:10C1900051FB634B48226349082002F01BFC002836
:10C1A00003D00022114601F045FB002004900590C9
:10C1B00001206946087404A860DF002803D000222B
:10C1C000114601F037FB584802F018FC002803D054
:10C1D0000022114601F02EFB06B010BD08B55348F1
:10C1E000C169B1294FD000245149032008600127BB
:10C1F000504DFE05AE6050480F21406989038842CA
:10C2000004D000221146104601F014FB0120000763
:10C21000006901218902884204D00022114610469B
:10C2200001F008FB45480090454B05220321002002
:10C2300001F04BFD002803D00022114601F0FAFA6C
:10C240003B4940480C39086000F083FE00F0C7FE0F
:10C2500000281CD0EE6000F0D1FE002803D00022A0
:10C26000114601F0E7FA20467840FFF778FF00F02A
:10C2700044F800F0E9FE002803D00022114601F046
:10C28000D9FAAE6009E001240021C161ACE7204683
:10C290007840FFF764FF00F030F82869000DC00710
:10C2A000C00F04D000202043274C07D101E001201B
:10C2B000F9E7A06800F0A4FD002809D1EE6000F0C5
:10C2C0005AFE002803D00022114601F0B3FAAE60F6
:10C2D000A06800F095FD002806D000F080FE002840
:10C2E00002D1A06800F053FEBFF34F8F18491748E2
:10C2F000C860BFF34F8F00BFFDE70A4A10B5483250
:10C300001421082001F0A4FA002803D000221146CD
:10C3100001F090FA10BD0000EFBEADDE2CEB030083
:10C320004BEA0300382F002057C1030000050040EE
:10C330005C070050000500500010001007E10300EA
:10C34000F82C00200C000300003000000400FA0567
:10C3500000ED00E00321094802680A430260084832
:10C3600002680A4302600748804707480047FEE723
:10C37000FEE7FEE7FEE7FEE7FEE7000024050040DB
:10C38000540500408DC30300C1C0030010B500F088
:10C390001DF8002805D01F491D484860C8131E49D4
:10C3A00088611E48018CC9B201290ED1818C090710
:10C3B0000BD1018D0906090F042906D1808D0006D5
:10C3C000000F02D116490120886010BD1348018C6E
:10C3D000C9B2012917D1818C090714D1018D090631
:10C3E0000A0F03D1828D1206120F0ED0090F0129F8
:10C3F00003D1828D1206120F07D0032903D1808D3D
:10C400000006000F01D00020704701207047000097
:10C41000DFFF07C000050040006C0040C00F00F0C7
:10C42000000600408207D30EFF229A408907090EBA
:10C4300010B5994000280BDA03071B0F083B9C0836
:10C440000C4BA400E318DC6994430C43DC6107E067
:10C450008408094BA400E418236893430B4323602A
:10C46000C106C90E012088400449086004490860DB
:10C4700010BD000000ED00E000E400E080E200E01C
:10C4800000E100E0F0B50025ED43002A02D00023D2
:10C49000042601E004230526FB4C05E09F003F191C
:10C4A0007F687F1C04D05B1CB342F7D32846F0BDE5
:10C4B0005DB2261835769E0036197160002AF5D1D6
:10C4C000E11820310875F1E770B5EF4D28780028A4
:10C4D00001D0082070BD0020411E2A18401CC0B2A7
:10C4E00011762028F9D30024204600F0C1F9641CFD
:10C4F000E4B2052CF8D301210620FFF793FF0120B9
:10C50000E249C007486001202870002070BDDE4865
:10C510000078002800D00120704710B5044600F0D4
:10C5200098F9002808D0DA48A1000A1810680221FA
:10C5300088430843106010BD204600F080F90028B1
:10C54000F9D0204600F08FF9D249820051180A69CB
:10C55000520852000A6101218140CC48816010BD1F
:10C5600010B50446FFF7D9FF204600F068F900280F
:10C5700007D0204600F077F9C64A002180008018D5
:10C580000161C34A0220A10089180860204600F01A
:10C590006AF9C0B200F06CF90020BB49C043091928
:10C5A000087610BDF8B50446B7480D4600191821A5
:10C5B00041560026491C01D008262FE0A978002901
:10C5C0001DD0012200212046FFF75CFF411C14D042
:10C5D0008300B0482A78181869780369AE4F3B4049
:10C5E00003610369E706FF0C9207920BC907C90AAA
:10C5F0003B430A431343036104E004260EE0012198
:10C60000C9430176A24A0320A100891808606A780C
:10C610000120A040A149012A02D0C8603046F8BDDF
:10C620008860FBE7F8B5984F0D4604463819182185
:10C6300041560026C8171346401C01D0082630E09A
:10C64000EA7819462046FFF71DFF411C28D0904B81
:10C65000AA78A100C918002A03D00A6802239A43C5
:10C6600001E06A7892000A60E978002910D082001F
:10C670008848297810180269894B1A400261E2063D
:10C68000D20C8907890B0A4301690A43026108E059
:10C69000381820302A78017D92011143017500E09D
:10C6A00004263046F8BD70B50D46064600F0D1F8B8
:10C6B00001240028304618D000F0D5F87249001F38
:10C6C00008182030007E8009032802D0012805D0F8
:10C6D00006E072480069B440204201D1022100E026
:10C6E0000321304600F09EF870BD00F0A8F8002845
:10C6F000FAD0304600F0B7F88100CA1D654BF93218
:10C70000C9180B6992B223430B6166495118002284
:10C710000A60002DE8D084405C48446070BD5F49E9
:10C720000969C140C807C00F00D001207047F8B5A3
:10C730000024FF250135012726460094284600F0F5
:10C740006AF800280AD0514901204968B0400142E6
:10C7500004D05448002128183C4301602D1D7F005F
:10C76000761CADB2042EE9D3FF207D3000F053F8E3
:10C77000002807D04C480021016040070443474887
:10C7800000690090404E200713D001270025274262
:10C790000BD04048AA00111808690969C004C00EEE
:10C7A0008903890F9219526890477F006D1C042DF0
:10C7B000EDD3002C1EDA3820805D01258406A40EFE
:10C7C0008709A540204600F044F8002812D02046F2
:10C7D00000F049F8800080194668002E0AD02C49E4
:10C7E000A0004018006800998003800F0D4202D01D
:10C7F000022802D0F8BD0328FCD1032F05D102285E
:10C8000007D00221204600F00DF839462046B047F7
:10C81000F8BD0321F6E7234940180068012800D03D
:10C820000020704782001A481018026803231B0476
:10C830009A430260026809040A4302607047124981
:10C84000081818214156042901D201207047002000
:10C8500070470D49081818214156042901DB0120B1
:10C86000704700207047084909181820085670477B
:10C87000054900228300D2435B185A60042802D382
:10C880000818203002757047D03000200063004047
:10C890000007005000650040FFE0ECFF000500507D
:10C8A000FFE0FCFF006000407C61004031B5054CBA
:10C8B00004E0401E00902046FFF70CFC0098002882
:10C8C000F7D138BDE70300001CB5A7490120C860B7
:10C8D000A649487003206A461070896868468847F0
:10C8E0001CBD70B502240122A14D9F4E9F4903003B
:10C8F00002F000F905040C2619200B0048780128E5
:10C9000018D0022801D10320487070BD4878002853
:10C9100002D00328F9D104E00420286032604A7074
:10C9200070BD4C7070BD4878012806D0022804D034
:10C930000328F7D100F00EF970BDFFF7C5FF70BDF9
:10C9400048780128FBD14878022800D0B260887866
:10C95000E861E6E710B5FFF7E2FE002801D000200D
:10C9600000E00120FFF7BDFF10BDFEB5814CA068BF
:10C970007E4D814E002700280ED0706840070BD5F1
:10C98000A7607B4880690422C0B2A88069460A700B
:10C990000871A96868468847E069002806D0706871
:10C9A000000603D5E7610320FFF79BFF606A0028BC
:10C9B0000ED0706880050BD567626D4980390868B4
:10C9C000086002216A4611700190A968684688478C
:10C9D000FEBDFFB50446654983B0002048708A60FB
:10C9E000421E8A806178012632468A4063498A6005
:10C9F000617803228B0062495B181A6022780C234D
:10CA0000920051180B605A4D6178E9602178696194
:10CA1000A1686962564F61794037002902D00E2122
:10CA2000F96200E0F8622379022B17D051494E4A8F
:10CA3000012B44D004232B608860C861F86A400849
:10CA40004000F862581FA860286196601660474849
:10CA500046700C98008800283DD042E0FFF757FD53
:10CA6000002803D1FFF730FD002852D14548694620
:10CA700000680090A078FFF795FD002849D1401E7E
:10CA80002861A078A860F86A3043F8623D483E4AC1
:10CA900040680190E07801A9FFF7C4FD002838D173
:10CAA000E0780121FFF7FFFDE078FFF738FE00286E
:10CAB00001D0002000E00120FFF713FFC9E70423A5
:10CAC0002B608860C861F86A3043F862E0782861BA
:10CAD000A078A860B9E725490C9A08781080401C16
:10CAE000087000212448C9438160A1218900416068
:10CAF000264904200860264B06991A68FF2424045E
:10CB00008907090EA24309040A431A6021490860F3
:10CB1000002007B0F0BD014610B51448002442784B
:10CB2000012A01D0042403E081700220FFF7D9FE1E
:10CB3000204610BD10B5FF2803D20420FFF7D1FE18
:10CB400006E00420FFF7CDFE09480069FFF708FD65
:10CB5000002010BD05490020487003490122CA6029
:10CB60004A6003490860704700200040042C002000
:10CB70000025004000210040002300400005005037
:10CB8000000700503CEB030055C9030080E200E0C1
:10CB900000E400E000E100E018225043854A002153
:10CBA0008018017181604161022281610261C1606E
:10CBB000704770B57F4C182221780F2051430A1915
:10CBC0007D4916795369121D4D68022E0ED0042E30
:10CBD0000BD1B006006981B2184601F03FFF401941
:10CBE00028DF002801D10121A17070BDA80255687D
:10CBF00051692D1A0918926818181018012292020A
:10CC0000954202D2AA0829DFEBE7FF22013229DF91
:10CC1000E7E7F8B5674C069E65780A2D1DD02778A2
:10CC20007D19EDB20A2D01D30A3DEDB218277D43DF
:10CC30002D192871AA6103C9EE60AB606961286192
:10CC4000A1780020002904D1FFF7B3FF112800D1FB
:10CC500000206178491C6170F8BD0420F8BDF8B56A
:10CC6000544C0022A17801293ED10023A37006462E
:10CC7000214608781827054678434118022E03D02C
:10CC8000032E31D10D202CE04B484668761C4660BF
:10CC90008968B6028E4214D343606078401E60708B
:10CCA000681CC0B220700A2801D30A3820701820EE
:10CCB000684301191046091D00F06BF82846FFF77C
:10CCC0006BFF607800280FD0A07800280CD1FFF708
:10CCD00070FF002808D0112806D02178182251436F
:10CCE0000919091D00F055F8F8BD70B50024324E41
:10CCF0003048746004704470847025462846FFF7FD
:10CD00004BFF6D1C0A2DF9D32B49346000200831EC
:10CD100074608200401C8C500228FAD3002070BD41
:10CD200010B5254B1A68022A09D00A601C469100EA
:10CD3000083400686050521C00201A6010BD0420A6
:10CD400010BDF8B507461D4616460C46084600F0CD
:10CD50001AF800280CD0601900F015F8002807D048
:10CD600033462246394602200095FFF752FFF8BDB0
:10CD70001020F8BD08B50B460022014604200092A1
:10CD8000FFF747FF08BD800701D000207047012052
:10CD9000704738B50C46E268074B920008339D583F
:10CDA000097862680092024620460C306369A84701
:10CDB00038BD00000C310020102C002010B5B74801
:10CDC0000378012B02D1022900D10170100003D099
:10CDD0000022114600F02EFD10BD10B5AF4C48DF0B
:10CDE000002803D00022114600F024FD00F0BCFD15
:10CDF0002078022803D0032801D00428EFD110BDE9
:10CE000038B50068401C19D00024684600F04EF97F
:10CE100000980178012910D1418800290AD0816841
:10CE2000032000038068002201F078F90099498806
:10CE3000814201D1012400E00024204638BD10B514
:10CE4000044696481C21001DFFF794FF002803D0DC
:10CE50000022114600F0EEFC904800231C222146DF
:10CE6000001DFFF76EFF002803D00022114600F0DE
:10CE7000E1FC10BD0FB4F8B5684600F017F968463C
:10CE8000027E418B0123854CFF258548002A12D064
:10CE9000012A16D0032A2AD00021022A36D0052AD8
:10CEA00046D0042A4ED0062A01D104202070F8BCB6
:10CEB00008BC04B01847418009998160037005716E
:10CEC00010E04180089A07998918099A89188160A9
:10CED000A521017005710799C1600899426101613E
:10CEE0000A99816123706E48FFF7A9FFDFE7009977
:10CEF0000A7802704A88428089688160AA2101719B
:10CF00000799C1600899016109990BE0009A1678A8
:10CF1000A52E09D0067056884680926882600571F9
:10CF2000C16001614161DDE7418081600570F6E724
:10CF300000F06CFC002803D00022114600F07AFCBF
:10CF40000320B3E741808160057000990979017180
:10CF5000C9E70EB5534A6B4607CA07C3FFF7C5FEBC
:10CF6000002807D14D49FF208002091D486068460E
:10CF7000FFF7D6FE0EBD10B500F06BF9002805D105
:10CF800000F022FC0446FFF728FF204610BD70B5D4
:10CF900011DF002803D00022114600F04BFC42496B
:10CFA00000200A68404B012180330C468440144223
:10CFB00004D0C506ED0E0C46AC401C60401C202879
:10CFC000F3D303242403A06813DF002803D0002236
:10CFD000114600F02FFCA06800F06EF870BD08B597
:10CFE000684600F063F800980178A52904D000791C
:10CFF000AA2801D0002008BD012008BD10B500F00E
:10D00000F4FA002803D100F0D2FA00281BD06420E3
:10D01000FFF74CFC00F075FA002803D000221146FF
:10D0200000F008FC00F0E1FA002803D000221146CD
:10D0300000F000FC00F09FFA040003D0002211462B
:10D0400000F0F8FB204610BD00B5164987B0142249
:10D050000C3101A801F018FD0598009001A80FC837
:10D06000FFF708FFFFF7B9FE002007B000BD38B595
:10D070000446684600F01AF800980178217041884B
:10D0800061808168A16001792171C168E1600169F5
:10D090002161416961618069A06138BD202C002057
:10D0A0000032002044EB030000E100E00149016090
:10D0B0007047000000FC030010B5FFF71BF810BD1F
:10D0C00070B5FF4C1E4660781546022902D004292F
:10D0D00016D108E0052813D1A369002B10D03246E1
:10D0E000294604200BE002280AD1F6484068804710
:10D0F00003206070A369002B02D03246294698476E
:10D10000280003D00022114600F094FB70BD00B54A
:10D11000EB4987B001200870052069460871059821
:10D12000009001A80FC8FFF7A5FE07B000BD10B51D
:10D13000E34C2078002801D0082010BD206900F0C1
:10D14000B2FE002803D00022114600F073FB0F212D
:10D1500000228904206900F069FE040003D0002247
:10D16000114600F067FB204610BDD54910B5D448E4
:10D170001C31416102214170C1681C30FFF7FAFD8A
:10D18000002803D00022114600F054FB10BD00B56A
:10D1900087B01422CC4901A801F076FC05980090D4
:10D1A00001A80FC8FFF766FEBFE700B587B00121F1
:10D1B00068460171C24881886846C1800320000327
:10D1C00080680590BF48503841680291816803919A
:10D1D000C0680490059800900A46049B0299019843
:10D1E000FFF748FE0020A0E710B586B0142101A883
:10D1F00001F063FC002468460471B14881886846E8
:10D20000C180B0485038C06804900598009001A8CB
:10D210000FC8FFF72FFE204606B010BD00B587B03F
:10D22000032168460171A64881886846C180A548E7
:10D2300050384168029181680391C0680490059854
:10D2400000900A46049B02990198FFF713FE002004
:10D250006BE73EB59C4A6B46143207CA07C3984D2C
:10D260000024AC702946AC801C316846FFF758FD9D
:10D27000002801D06C703EBD0320914900038068F6
:10D280001C3148608E48914A0021103000F070FD3A
:10D29000002803D00022114600F0CCFA0F21002212
:10D2A0008904286900F0C2FD002803D0002211463D
:10D2B00000F0C0FA0120AC60687000203EBD8049DB
:10D2C0008861704770B542687E48146853689168F9
:10D2D0005038D26804604360C260816000784407BF
:10D2E00001D5840705D19C0703D18C0701D1940790
:10D2F00001D0062070BD5B189A18714D0F239B0258
:10D30000EA60994206D80321090389681B01591A6A
:10D31000914201D20C2070BD6A4C6D4921606D496B
:10D320006160C10701D06C4804E0800701D56B48FB
:10D3300000E06B48A0606878012802D008263046DB
:10D3400070BDFFF7F4FE0600FAD12168E86888474F
:10D35000F5E770B5050004D0287A800703D01020C7
:10D3600070BD0E2070BD564C6078032803D0042891
:10D3700001D0052801D0082070BD6868E1688600EA
:10D38000A0688019884204D90020C043A0600C2006
:10D3900070BDFFF7CCFE0028FAD1A9683246A36819
:10D3A0006069FFF7CEFC0028F2D1A1688919A1605D
:10D3B000E2689142ECD0092070BD10B5404C0820C5
:10D3C000A168002900D010BD61780429FBD13D4837
:10D3D000A178403800F0C0FE002802D00021A170E2
:10D3E00010BD0521617010BDF8B5354C0746607859
:10D3F000032804D0042804D008252846F8BD0420BA
:10D400006070A068002801D00820F8BDFFF78FFEEB
:10D410000500FAD178688600A0788119402901D9E1
:10D420000920F8BD274AB968403A1018324601F081
:10D430002BFBA0788019A070DFE710B5204C607836
:10D44000052813D1E168A06888420FD106206070DA
:10D45000FFF76DFE002808D16069E168406800F0C0
:10D46000B5FE002801D10721617010BD082010BD54
:10D4700010B513484178072901D0082010BD006974
:10D4800000F011FD002803D00022114600F0D2F96F
:10D490000C488068804710BDF8B51C4617460D46FD
:10D4A000064600F0CEF800282AD00120000385426D
:10D4B0001AD92346291B301B1A46FFF7EDFF11E04E
:10D4C0002C2C00206C32002064EB03000FD10300F1
:10D4D0006BD103008FD10300ABD103001DD2030039
:10D4E000E9D1030000280BD13A462946304600F026
:10D4F000B3F8002804D13A462946304600F0A1F896
:10D50000F8BDF0B589B06846FFF7B1FD0398002873
:10D510002AD001210903069A4018904226D9501AB0
:10D5200045081046039A0C468718024668001618EC
:10D5300000190790032000038068039988420DD2E8
:10D5400061190846042200F087F800280CD1214612
:10D550000422084600F080F8002805D1BA1B2B46AB
:10D5600030460799FFF798FF09B0F0BD039A069877
:10D5700000F072F8F8E700B58BB004A8FFF777FD6C
:10D58000089800280DD0079800280CD007990A9811
:10D590004018019000210898009180080290684688
:10D5A00018DF0BB000BD032000038068F1E700B571
:10D5B0008BB004A8FFF75BFD08980028F1D007980E
:10D5C00000280ED007990A984018032100910F21D6
:10D5D000029089030898019180080390684618DF3B
:10D5E000DFE7032000038068EFE730B58FB06846BF
:10D5F000FFF73DFD0398002814D001210903069A86
:10D600004018904214D9501A43081046039A5C00FF
:10D6100082180019611803242403A468039DAC42F6
:10D6200002D20E200FB030BD121AFFF735FFF9E716
:10D6300003200BAB07C3039880080E900BA818DFDC
:10D64000F0E71FB503230190900803900093029127
:10D65000684618DF04B010BD1FB501230190900883
:10D66000039000930291684618DFF3E70C225043C1
:10D670006C4A00211150801881604160704710B5DC
:10D68000042819D20C21674A41438B1851589C68D1
:10D6900000290FD0114620310A7C521E0A74FFF770
:10D6A000E5FF201F01F037F9002803D000221146C2
:10D6B00000F0C0F8002010BD072010BD10B5080014
:10D6C00003D00022114600F0B5F810BD70B5554DDD
:10D6D0002E4620362FE0002421460C2041434819D5
:10D6E0000268002A24D0695801290ED0032907D0E6
:10D6F000042902D0052912D121E0FFF72AFE0EE00D
:10D7000081684160FFF7DEFD03E0FFF76DFEFFF784
:10D7100054FE002803D00022114600F08BF8E0B23E
:10D72000FFF7ADFF002803D00022114600F082F879
:10D73000641C042CD0D3307C0028CCD170BDFFF702
:10D740007CFEFFF795FE70BD3EB501A9684601F06D
:10D75000C3F8002813D1009802AC0378002B0ED038
:10D7600030492031087C032809D02E4A00200C259E
:10D7700045435559002D0CD0401C0428F7D3009880
:10D7800001F0C9F8002803D00022114600F052F839
:10D790003EBD20700C2460431350087C401C08746C
:10D7A0006846808881086846007A491E6043801870
:10D7B000416000991C4A091D81600021084600F063
:10D7C0005BF80028DBD13EBD164810B500212030A3
:10D7D00001740C46E0B2FFF749FF641C042CF9D336
:10D7E0001248FFF76CFD01F02AF8002803D0002250
:10D7F000114600F01FF80E4801F00CF8002803D085
:10D800000022114600F016F8002010BD10B50024CB
:10D81000E0B2FFF734FF641C042CF9D301F03BF8AD
:10D8200010BD000078320020CDD60300BDD6030025
:10D8300049D70300BFF34F8F04490348C860BFF3C3
:10D840004F8F00BFFDE700000400FA0500ED00E087
:10D8500030B5CB0008339DB293070024002B01D0D4
:10D86000072030BD574B9A605219DA605C701C700B
:10D8700058809980002030BDF7B5524C82B0608846
:10D880000F4681426ED80020694608704F494E4EBF
:10D890004868C005C00D18D0103840B2002807DA1B
:10D8A0000207120F083A920892005118C96904E061
:10D8B0008108474A8900891809688007C00EC1405D
:10D8C0000806850F012D01D10AE00425684636DFE0
:10D8D00002280CD0002803D000221146FFF7AAFF2F
:10D8E00022786078A188884203DA401C02E072B690
:10D8F000F6E70020C0B2904207D066786078884290
:10D9000001DA401C00E000206070012D0BD062B6EF
:10D910006846007837DF022805D0002803D00022AF
:10D920001146FFF787FF2848864219D0A068F50006
:10D9300004994151029900290CD0002F0AD0608827
:10D940003A464643E068301801F09EF8A06828186F
:10D95000878002E0002128188180002005B0F0BDFA
:10D960000420FBE70920F9E70EB504E0684681884A
:10D97000029A0098904702AA01A9684600F003F8AD
:10D980000028F3D00EBD70B50E4B05241D785E78CF
:10D99000AE4215D01D781C789E88B44201DA641C12
:10D9A00000E000241C705C88DE686C43A4190460ED
:10D9B0009B68E800C418A4880C80185800241060E4
:10D9C000204670BD502C0020FFFF000000ED00E05D
:10D9D00000E400E08307FF22DB0E9A408907090E6E
:10D9E000994000280BDA0007000F08388308FB482D
:10D9F0009B001818C36993430B43C36170478308A6
:10DA0000F7489B001B18186890430843186070473C
:10DA100070B50124F34960040860F3494010886040
:10DA2000F14940398860F14D6C602F20FEF77CFB96
:10DA3000AC60EF4D00242F206C61FEF775FB2C715C
:10DA400070BDF0B5EA4F2421BC6841430D19396916
:10DA50004A1C09D024224A4316196B687268934203
:10DA600004D8D21A726029623861F0BD0A4602E019
:10DA70000A46396A9B1B4E1C0BD024264E4337198D
:10DA80007E689E42F4D324264E4336197768FF1AE7
:10DA900077606B60296224214A4311190862F0BD46
:10DAA00070B5D34C2269A5681346114606E0814241
:10DAB00007D00A46242671434919096A4E1CF6D13B
:10DAC00070BD002EFCD08A420CD12420434358194B
:10DAD000006A2061401C05D1C44B012098600023DE
:10DAE00063616071242041434819242341685A43EB
:10DAF000006A52191062421CE2D02422504340199D
:10DB000042685118416070BDF8B5B94C2569681C70
:10DB100035D0B848002640686169401A07023F0ABC
:10DB200019E024204543A0682A185068B84214D848
:10DB3000A3693F1A8619156A002B09D0D16990692B
:10DB40009847002807D000221146FFF773FE02E035
:10DB50009169D0698847681CE3D1A178E078814257
:10DB600006D1401CC0B2E070022801D10020E07054
:10DB70009F490006800D1C310E5000F0BDF9F8BD24
:10DB8000F8B504469A4800270169009146785CE0A0
:10DB90009748F100C2688D1851E0601C07D0944A84
:10DBA00024209268604321468018046A24E0287883
:10DBB000182141436A68401CC0B252182870A978E5
:10DBC000884200D12F708A4B516824209B684843BB
:10DBD000C0181378012B34D1037D002B31D1936809
:10DBE0008360D368C360136903615269C261804A6C
:10DBF0005279002A00D087607D4B82685B69964627
:10DC00009C46D31A1A027C4B120A9A4202D2C3686B
:10DC1000D21808E0724663469A1A1202C368120AC2
:10DC2000934202D99A1A426000E04760876001225D
:10DC3000C7600275921E02620846FFF702FF601C71
:10DC4000ABD1287869788842A7D13046761EF6B2E3
:10DC500000289DD1664801690098814201D00120C9
:10DC6000F8BD0020F8BD6549002008604860886064
:10DC7000C860624940390860486045E7FEB5002049
:10DC8000C0435B4D02906869019068462E6900F0C0
:10DC900038F9074600F052F90446002F08D002AACE
:10DCA0000199009800F092F90298FFF769FF06E0E9
:10DCB0000298FFF765FF002801D1002C02D0304602
:10DCC00000F0ADF900206871FEBDFFB59807002493
:10DCD00081B01E4615460F4600280BD1002E09D0F4
:10DCE000FFF796FE42490A9888610F70324600207D
:10DCF0008E6008E0072005B0F0BD24234343D454D0
:10DD00009B181C75401CB842F7DB24204743BB1905
:10DD1000032048700F461846CB6019461830002281
:10DD200018232E465E43D3005B181C705C709D70F8
:10DD300058603018521C032AF5DB0020C0433861BC
:10DD4000BC70FC7001242E482405046003211420BB
:10DD5000FFF740FE234880380460264C0198A060FD
:10DD600003211120FFF736FE606878610020C2E7CA
:10DD700070B51F4CA568002D06D0002A06D00028DB
:10DD800004D00023247809E0082070BD072070BD6E
:10DD900024265E43AE5D002E04D05B1CA342F7DB5D
:10DDA000042070BD242401265C432E556419617043
:10DDB000A2610360002070BD08494868C005C00D1D
:10DDC0002ED0103840B200281CDA0207120F083A91
:10DDD000920892005118C96919E0000000ED00E0B6
:10DDE00000E400E080E100E0401301400010014049
:10DDF000602C002000150140FFFF7F004011014012
:10DE000080E200E08108B24A890089180968800729
:10DE1000C00EC1400806800F012803D0032803D09C
:10DE2000022070470020704701207047FEB504466D
:10DE3000A848174682680D46002A0CD001788C420B
:10DE400001D2052D01D20720FEBD214624235943CE
:10DE5000535C012B01D00820FEBD881840780128B2
:10DE60001DD00026FFF7A8FFC0009A490190C9689D
:10DE70004018694600F019F9002812D001210170FC
:10DE80009549446049680830E2C092490198C968E0
:10DE900041180098487000F02FF80020FEBD2E4673
:10DEA000E0E70420FEBDF8B58A4D0446A8680028C6
:10DEB00009D029788C4201D30720F8BD2421614381
:10DEC000405C012801D00820F8BDFFF775FFC600AF
:10DED000E8686946301800F0E8F800280AD0022106
:10DEE00001704460E86831180098487000F004F848
:10DEF0000020F8BD0420F8BD012078490005086025
:10DF0000704710B5734900238A78CC78A24212D0AA
:10DF1000521CD2B28A70022A00D18B708A786D4B63
:10DF200092001C339A580260486910180002000AD7
:10DF30004861012010BD0360002010BDF8B56548A0
:10DF400001690091457833E06248E900C0680E1825
:10DF500034782AE0182060437168641C0818B1788E
:10DF6000E4B2A14200D100240178022902D00329A1
:10DF70001BD113E0574A40682421926841438F180F
:10DF8000397D002911D0FFF78BFD002038750CE09A
:10DF900024277843C0180275006A03E04D49002227
:10DFA0008B680869471CF3D108617078A042D1D111
:10DFB00028466D1EEDB20028C6D14648016900987A
:10DFC000814201D00120F8BD0020F8BDF7B5414CD9
:10DFD0000025A76823691EE024215943C9194E680A
:10DFE000864202D9301A486017E0801B7519002656
:10DFF0004E600E750E699C460B6AB646002E0AD01E
:10E00000019E76193602360A8E607646CE60166814
:10E010000E6261461160591CDED12361FEBDF8B568
:10E020002C4801694A1C3DD024225143826889183A
:10E030004E6829494C6847690079E11B0D022D0A99
:10E04000ED1C002815D10120254A00045060244A07
:10E05000403A506021494000803108602149086001
:10E060002149012008602F20FEF75EF819490120A0
:10E070000871B54200D23546E81900021649000A77
:10E080004031086014494968001B091B0902090A4C
:10E090000002000AC91C814203D901200F49400433
:10E0A0000860F8BDFFF7B4FCF8BD42788378521CD5
:10E0B000934200D100220378934201D1002070479F
:10E0C0000A604168407818225043081870470000E1
:10E0D00000E400E0602C00200015014000E200E0B8
:10E0E0004013014000E100E00010014010B504467B
:10E0F000082904D0002211461046FFF79BFB216837
:10E100006068884710BD1CB501910090024A082143
:10E110006846FFF7B1FB1CBDEDE0030010B50446F7
:10E12000002A02D01088002210E00A48FBE7030A08
:10E1300000020343A05C584003061B0F4340180332
:10E14000584083B21806C00C5840521C8A42EED385
:10E1500010BD0000FFFF000070B500250C290ED394
:10E1600004464318008941000919581A0A38C2B2F6
:10E170001E48022A027002D30A318B4201D20920C2
:10E1800070BD1B4800F080FC1A491B480A88824277
:10E1900002D02388934217D14988814202D06088F7
:10E1A000884211D1144A0323521E20891B03A8421E
:10E1B0000AD9690009194989914203D09E896D1CC9
:10E1C000B142F4D1002070BD0B2070BD10B500220B
:10E1D000FFF7A4FF064A51781278090211438842DA
:10E1E00001D00B2010BD002010BD0000842C0020A9
:10E1F000AC32002080100010FFFF00004F480021CB
:10E20000017050484E4A02608160C1600161022283
:10E21000416142608161084670470020704710B537
:10E2200000291FD000220A60464A5368002B1DD0E7
:10E230004B24E400A04217D85B1E5360D06897239C
:10E24000401CD06010699B0014684343E3180B60C6
:10E2500001210C469369844023438143936100204C
:10E26000116110BD0E2010BD0C2010BD042010BD8A
:10E27000F0B5344B8446996800292BD05A69102098
:10E28000511AC907C90F96461D680A4601279726E5
:10E29000B6004E43AE19664506D13D469C698D4099
:10E2A0006C4000209C6104E00E463946B1438E4527
:10E2B000EDD13D469C698D43394691400C420AD1CF
:10E2C0009968002907D0491E996059682A46491C57
:10E2D0005960F1E70420F0BD1A4A01211369126860
:10E2E000994397239B0059431B1FC9185050002086
:10E2F000704770B500281CD000291AD0114AD36885
:10E30000002B18D05B1ED360936897265B1C93602C
:10E310005369B6001D4614687343E61806604B2027
:10E32000C0001818205808600120A8435061002040
:10E3300070BD0E2070BD042070BD0000852C002033
:10E34000D83200209037002010B5884CA169206990
:10E35000405CFEF7E0FB002802D1A169491CA161E5
:10E3600010BD10B5C020FEF7D6FB002805D17F49AF
:10E370008A69002A01D17E4A8A6010BD10B57B4CA3
:10E38000A1692069405CC02803D0DB2803D00420A9
:10E3900010BDDC2000E0DD20FEF7BDFB0028F7D13A
:10E3A000A169491CA1617249A16010BD10B5DB20B3
:10E3B000FEF7B1FB002802D16C4A6E49916010BD96
:10E3C00070B56B4D6C4E694C10E0A1692069415CE1
:10E3D000C02903D0A169405CDB2803D1A068A84212
:10E3E00000D1A660A0688047042813D0A0696169A5
:10E3F0008842EAD36148A060FFF7B3FF002809D143
:10E4000001202070E368002B04D05D48A2690068F9
:10E410002169984770BD30B4544B5A6A002A09D01C
:10E42000DC68002C06D00020D9695862D861A44667
:10E4300030BC604730BC7047C02808D04B49DB284F
:10E4400006D0CB694A6A9854521C4A627047E2E788
:10E450004C484860704710B5444CC02808D021464D
:10E460004A6ACB69511CDC2805D0DD2806D104E0BE
:10E47000FFF7D1FF04E0C02000E0DB209854616288
:10E480004148606010BDC02802D138493E4848600C
:10E49000704770B505460078344C032804D12078C5
:10E4A000022812D1FFF78CFF287804280DD1E169EA
:10E4B000002903D0626A206A824207D3E368002BF6
:10E4C00003D02F48626AC068984770BD6168287998
:10E4D000884770BD2549C860002070471FB5234C90
:10E4E0002078002802D0002004B010BD244A01ABDF
:10E4F000183207CA07C31D480323801C0090234A13
:10E50000002101A8FEF765FA0028EDD10121217054
:10E51000EAE710B51548002101704088FEF70AFBB4
:10E5200010BD10B5002807D0104A1378012B05D074
:10E53000022B0FD0082010BD102010BD00239361C6
:10E5400051611061022010700C489060FFF738FF95
:10E55000002010BD042010BD044A1162D0610020CB
:10E5600050620B485060002070470000882C00204B
:10E5700049E303007DE30300ADE3030063E303002D
:10E5800084EB030057E4030039E4030093E4030041
:10E5900087E4030010B5E948E84C007DE41CC000A6
:10E5A000207000206070A070204600F0B9F9E07083
:10E5B00004212046FFF7B5FF10BDF3B581B04B260F
:10E5C000029FF600DD4C0546042F65D928784106E8
:10E5D00062D5010660D569780A07120F0E2A5BD151
:10E5E0004118AA78E878101808180006000E53D1D0
:10E5F00000222846B91EFFF791FDE9191E394A7F0E
:10E600000B7F11021943884246D128780127410720
:10E610006069490FC2B28A4231D1401C4007400FA5
:10E620006061FFF7B7FF67700298FFF755FE00289B
:10E6300003D000221146FFF7FDF8C04930461031E3
:10E64000FFF7EDFD00280AD0042804D0002211466F
:10E650001046FFF7EFF8B94805212C3001E03146AC
:10E660002069FFF779FF002803D000221146FFF749
:10E67000E1F8E168002901D000208847FEBD31465D
:10E680002069FFF769FF002803D000221146FFF739
:10E69000D1F8FFF77FFFFEBD31462069FFF75CFF31
:10E6A0000028F8D000221146FFF7C4F8FEBD70B56F
:10E6B000A24C257821464B6A002D12D00A46116AD9
:10E6C000D269012D1ED0022D1BD1002828D002288E
:10E6D00034D0032815D1207E401C4007400FA06194
:10E6E00038E000280DD11846FFF7DDFB002803D0E5
:10E6F00000221146FFF79EF8A168002901D0A078FA
:10E70000884770BD0128FCD11046891DFFF709FF1D
:10E71000002803D000221146FFF78CF802201AE0EF
:10E7200000200246A06286491846FFF77FFB0028BA
:10E73000E7D000221146FFF77DF870BDA06A0528DA
:10E7400006D0401CA0621046891DFFF7EAFE70BD8E
:10E750000120A070002000F0ECF870BD37B56846CD
:10E760000078002808D0012802D002284BD14FE0C1
:10E770000120FFF79CFF3EBD0299704C01980429CF
:10E7800021D341780807000F06D00E281BD102992B
:10E790000198FFF712FF3EBD019803788278C07898
:10E7A000591810180818C0B2002200280BD198067A
:10E7B000410F207E401C4007400F884203D1A270C9
:10E7C0000320FFF774FF4B252069ED00002801D0DE
:10E7D000294614E0594928461031FFF720FD00284A
:10E7E00008D0042804D0002211461046FFF722F872
:10E7F000052102E02946206901E050482C30FFF74E
:10E80000ABFE0028C7D000221146FFF713F83EBD2B
:10E810000521F2E710B504464848C4604948FFF7AF
:10E8200059FE002803D000221146FFF703F8002C00
:10E8300001D0002010BD0E2010BD022037E770B5BA
:10E840003E4C0020E0612062A062607020700120D8
:10E850006061A061A070014620463B4A2430FFF76A
:10E8600087FA002810D1FFF7C9FC00280DD1FFF767
:10E8700035FE002809D14B252146ED0010312846F0
:10E88000FFF7CDFC002801D0032070BD2946206988
:10E89000FFF762FE70BD10B5284C0020A060E0605C
:10E8A000FFF7BBFC002803D000221146FEF7C2FF91
:10E8B000FFF72FFE002803D000221146FEF7BAFF13
:10E8C000606AFFF7F0FA042804D1002211461046CE
:10E8D000FEF7B0FF002010BD38B50D46040017D07C
:10E8E000002D15D00020154900904A78002A0DD03F
:10E8F000487069462046FFF7FCFC02460098801FDE
:10E90000009028802068001D206002E0042200E0C2
:10E910000E22104638BD10B5001FFFF7A9FC10BD30
:10E9200001784278807851184018C043401CC0B22A
:10E930007047024908700020B9E60000B02C0020A2
:10E94000DF4F00005DE703003BE8030010B5084619
:10E950001146FDF7F9FB10BDF8B5344C20780028BE
:10E9600037D02069002807D00026E068002805D0AD
:10E970000025002E04D013E00126F6E70125F8E774
:10E98000684651DF052806D0002806D0002211462F
:10E99000FEF750FF04E0012602E021690098884755
:10E9A000002D12D1608869460880A06861DF0528C3
:10E9B00006D0002806D000221146FEF73BFF04E0F7
:10E9C000012502E0E168A0688847002ED8D0002D1C
:10E9D000CFD0F8BD70B5002901D08C0701D0072039
:10E9E00070BD124C0125A16062801149636010DF87
:10E9F0000028F5D1257016202EDF70BD002803D029
:10EA00000A490861002070470E20704710B507487A
:10EA10004068002807D08047002803D00022114614
:10EA2000FEF708FF10BDFFF797FF10BDE42C002094
:10EA30004DE9030010B5002904D00022114610460C
:10EA4000FEF7F8FEFFF788FF10BD10B50021024A5F
:10EA50000846FEF711FF10BD35EA030030B50B463E
:10EA6000014600202022012409E00D46D5409D42A8
:10EA700005D31D469540491B25469540401915462E
:10EA8000521E002DF1DC30BD03460B439B0703D023
:10EA900009E008C9121F08C0042AFAD203E00B7863
:10EAA0000370401C491C521EF9D27047D2B201E0DB
:10EAB0000270401C491EFBD270470022F6E710B5D9
:10EAC00013460A4604461946FFF7F0FF204610BDDC
:10EAD000064C0125064E05E0E36807CC2B430C3CB1
:10EAE00098471034B442F7D3FDF7EEFAA8EB0300D1
:10EAF000C8EB030030B47446641E2578641CAB4236
:10EB000000D21D46635D5B00E31830BC184702E08D
:10EB100008C8121F08C1002AFAD1704770470020A8
:10EB200001E001C1121F002AFBD170470200000062
:10EB300000000000000000000000000000010000D4
:10EB400003000000BDCD0300000000000000000035
:10EB500002000000000000000000000000000000B3
:10EB600000000000040000000000000000000000A1
:10EB70000000000000000000C1D003000000000001
:10EB80000000000001000000000000000000000084
:10EB90000200000000000000000000000B09080A4D
:10EBA0000100000000509D00C8EB0300002C002075
:10EBB000F80000000EEB0300C0EC0300F82C00206E
:10EBC000B81200001EEB03000024F4000100000056
:10EBD000FFFF000000000000000000000000000037
:10EBE0000000000000000000000000000000000025
:10EBF0000000000000000000000000000000000015
:10EC00000000000000000000000000000000000004
:10EC100000000000000000000000000000000000F4
:10EC200000000000000000000000000000000000E4
:10EC300000000000000000000000000000000000D4
:10EC400000000000000000000000000000000000C4
:10EC50000000000087E4030049E303000000000017
:10EC600000000000000000000000000000000000A4
:10EC70000000000000000000000000000000000094
:10EC80000000000000000000000000000000000084
:10EC90000000000000000000000000000000000074
:10ECA0000000000000000000000000000000000064
:10ECB0000000000000000000000000000000000054
:020000040003F7
:10FC000001000000000000000000000000000000F3
:10FC100000000000000000000000000000000000E4
:10FC200000000000000000000000000000000000D4
:10FC300000000000000000000000000000000000C4
:10FC400000000000000000000000000000000000B4
:020000041000EA
:0410140000C0030015
:040000050003C0C173
:00000001FF
