:020000040001F9
:10600000182E0020556101006F61010071610100CF
:106010000000000000000000000000000000000080
:10602000000000000000000000000000736101009B
:1060300000000000000000007561010077610100B0
:1060400079610100796101004D6B01007961010006
:106050007961010000000000B1690100796101006F
:1060600079610100796101001D6B01007961010016
:1060700079610100796101007961010079610100B4
:1060800079610100316A01007961010079610100E3
:10609000516A010079610100A56A0100796101007E
:1060A000796101007961010000000000000000003A
:1060B00000000000000000000000000000000000E0
:1060C0000348854600F0D0FB004800478186010068
:1060D000182E0020401E00BF00BF00BF00BF00BF41
:1060E00000BF00BF00BF00BF00BF00BF00BFF1D1B5
:1060F00070470000401E00BF00BF00BF00BF00BFD0
:1061000000BF00BF00BF00BF00BF00BF00BFF1D194
:1061100070470000401E00BF00BF00BF00BF00BFAF
:1061200000BF00BF00BF00BF00BF00BF00BFF1D174
:1061300070470000401E00BF00BF00BF00BF00BF8F
:1061400000BF00BF00BF00BF00BF00BF00BFF1D154
:10615000704700000321094802680A4302600848AA
:1061600002680A4302600748804707480047FEE785
:10617000FEE7FEE7FEE7FEE7FEE70000240500403D
:1061800054050040C96A0100C160010030B50B46EA
:10619000014600202022012409E00D46D5409D4201
:1061A00005D31D469540491B254695404019154687
:1061B000521E002DF1DC30BD03460B439B0703D07C
:1061C00009E008C9121F08C0042AFAD203E00B78BC
:1061D0000370401C491C521EF9D27047D2B201E034
:1061E0000270401C491EFBD270470022F6E710B532
:1061F00013460A4604461946FFF7F0FF204610BD35
:10620000420005D04200120E52428A4201DB0020B9
:106210007047C90508187047F0B50746084658404A
:1062200087B0C00F049048000E4659004008490846
:10623000BC1A884105D2384631461E4617460B46E1
:1062400002465800400810434CD0300D03904005E2
:106250005900400D490D0590401A0290402872DA0D
:1062600018030121000B09050843019004980092CE
:10627000002805D0019952420020884100920190E7
:10628000029840210A1A0199009800F07DF905460C
:106290000C466B4607CB00F087F9C0197141039A91
:1062A0000E0D0023D71756401A467A40164344D0A5
:1062B000049A002A2DD0029A012A039A15DC1205AD
:1062C000C01A914101263605001C7141D20F059E6E
:1062D000D2070093019202962A46234600F0C5F9A0
:1062E00007B0F0BD38463146FAE71605224A0F4698
:1062F000B218C01AB74101210905001C4F4100180E
:106300007F41114618187941E20F10436D1964411D
:1063100013E0E2076D0815436408C2071443039AAB
:1063200001261205C01A91413605001C7141CE07A5
:10633000400830434908C01851412A46234600F01E
:1063400087F9CDE7FFE7049801224000C117121A30
:1063500000238B4104983146C417381AA141EEE757
:1063600030B40124E407634030BC55E730B4012465
:10637000E407614030BC4FE70000E0FFF0B51FB418
:1063800088B00B990998002448400999C00F49002A
:1063900049080991C0070B990090490049080B91E1
:1063A00009990898A64608431CD00B990A980843F7
:1063B00018D0099801244000420D4800410D099869
:1063C00024050003000B204309900B980003000BE9
:1063D00020430B9050181C4940180022019014468D
:1063E000104605E0002001460DB0F0BD032801DA9B
:1063F000034600E003239C46C11A0AAE0AE05F0090
:1064000008ADED5B4F00F75B7D430027AA187C4188
:10641000491C5B1E6145F2DD410004AB5A52210468
:10642000120C0A43240C401C0828DFDB0198029060
:106430000099704601910090059B049A079906986F
:1064400000F013F9D0E700000DFCFFFF10B50022AB
:106450009623114600F0C3F810BD00000EB50549A3
:106460000291002100910A460B46019100F0FDF8CF
:1064700003B000BD33040000410040020122400A85
:10648000D205090E80187F2901DA0020704796296D
:1064900003DC9622511AC8407047963988407047ED
:1064A000C20FD207400040080BD0C10D0723DB010B
:1064B000C91840020905400A1143C20840071143A8
:1064C0007047002001467047CB0FDB07490010B52D
:1064D000490802460A4307D00A0D07240903E401CC
:1064E000090B121B002A01DC002010BDC900440F5B
:1064F0000C43C100E018D205801800F068F810BD08
:106500000122D207002800DB101A002900DB511AF3
:10651000814270470122D207002800DB101A0029AF
:1065200000DB511A88427047F0B51FB406460020C0
:1065300082B005464024019100901BE0019922465B
:106540000F46304600F0A2F9049A059B801A994143
:1065500010D310461946224600F016F8361A8F411D
:106560000197224601200021009F00F00DF8381805
:106570004D4100902046641E0028DFDC019B0098FE
:106580002946324607B0F0BD10B5202A04DB01468B
:10659000203A9140002010BD914020239C1A0346D0
:1065A000E3401943904010BD10B5202A06DBCB17FD
:1065B0000846203A1041C1170B4306E00B46134131
:1065C000D0402024A21A91400843194610BD00294A
:1065D00004DA401C490001D140084000704770B403
:1065E0000024050C05D11024000402D1002921D07B
:1065F0001124050E01D100020834050F01D100015C
:10660000241D850F01D18000A41C002801DB40005F
:10661000641C002908D020252E1B0D46F540A14002
:1066200000D001212943084301061B1B000ADB1D82
:1066300002D5002070BC7047DB05181880180029AF
:10664000F8DA401C4900F5D170BC400840007047A2
:1066500010B5002B08DA0024401C614192185B4100
:106660001A4301D14008400010BDF0B51FB482B0FC
:1066700005460C0003D0084600F0A2FA02E000F044
:106680009FFA20300246009021462846FFF77CFF03
:10669000049B059A04460F4618431143084314D03F
:1066A000184610431BD0009840210A1A1846059935
:1066B00000F0ECF805460E46009A05990498FFF79D
:1066C00063FF084305D0012004E02046394607B0A7
:1066D000F0BD0020C11705430E432C4337430099FA
:1066E0000E986305401A7905E40A00220C43FD0A5E
:1066F0000A3002D500200146E9E701051019694179
:106700000C9C0D9D00196941FFF7A2FFDFE7000017
:10671000F0B50C465C4085B0E40FE40703944C00F0
:10672000002664085900944649080246029622430E
:1067300021D062460A431ED06200570D4A000E0364
:106740002303550D012402462C492405781B1B0BFD
:10675000360B401823432643614600901C46501ACE
:10676000B44103D30098401C009002E092180098B6
:106770005B41002803DA0020014605B0F0BD00208F
:10678000012109050746864611E064461D46141B93
:10679000B54106D36546521BB341744607430C43CB
:1067A000A646CD0740084908284392185B41054694
:1067B0000D43EAD11046184313D0604619465040A5
:1067C0007140084306D06046101AB34106D2012238
:1067D000002306E000220123DB0702E00122D2436E
:1067E0005310009874460105381C6141029C039DBA
:1067F00000196941FFF72CFFBFE70000FD0300000F
:106800004A0009030123090B1B0519430A4B10B564
:10681000520D9A4202DA0020014610BD064B343375
:106820009A4203DC9A1A00F031F810BD034BD218DB
:10683000FFF7AAFE10BD0000FF030000CDFBFFFF25
:1068400010B5002904DB0124E40740428C412146B5
:10685000002B04DB1C460123DB075242A341994273
:1068600000D1904210BD0000064C0125064E05E007
:10687000E36807CC2B430C3C98471034B442F7D361
:10688000FFF722FCB8A90100D8A9010010B5202A01
:1068900004DB0846203AD040002110BD0B46D3400F
:1068A000D0402024A21A91400843194610BD000090
:1068B00070B5374CE1212068364D090188420FD36D
:1068C0000020206002F0C8FF0A21FFF799FCA060B9
:1068D000FFF7E6FD02460B462FA003F089FD01E01D
:1068E000401C2060A878FFF7B1FDA168FFF708FE03
:1068F00006D2182002F010F8192002F02DF813E04B
:106900006878FFF7A3FDA168FFF7FAFD13D2A87816
:10691000FFF79CFDA168FFF7FDFD0CD8182002F0E1
:106920001BF8192001F0F8FF1C2002F015F81D20BB
:1069300002F012F870BD2878FFF788FDA168FFF714
:10694000DFFD10D26878FFF781FDA168FFF7E2FD57
:1069500009D8182002F000F8192001F0FDFF1C20D2
:1069600001F0DAFFE3E72878FFF770FDA168FFF791
:10697000D1FDDFD8182001F0EFFF192001F0ECFF66
:106980001C2001F0E9FF1D2001F0C6FF70BD0000D2
:10699000002500208C200020647573745F73656E81
:1069A000736F725F64617461205B25665D200A000D
:1069B00005480168012905D104494968C90701D082
:1069C000002101607047000000610040006300404A
:1069D00010B5002304E0445CE318491C9BB2C9B223
:1069E0009142F8D9180AC018C0B210BD8307FF221F
:1069F000DB0E9A408907090E994000280BDA000740
:106A0000000F0838830808489B001818C36993438F
:106A10000B43C3617047830804489B001B18186828
:106A2000904308431860704700ED00E000E400E088
:106A300010B506490020086048608860C8600349B6
:106A400040390860486003F059FD10BD4011014015
:106A5000FEB50020C043124D02906869019068465F
:106A60002E6901F05DFC074601F048FD0446002F49
:106A700008D002AA0199009801F072FC029801F076
:106A800087FD06E0029801F083FD002801D1002C6B
:106A900002D0304601F078FB00206871FEBD000096
:106AA000D020002010B507484068002807D0804754
:106AB000002803D00022114600F0D8FD10BD01F0DF
:106AC000ABFC10BDF420002010B501F0F3FC002851
:106AD00005D00E490C484860C8130D4988610D481F
:106AE000018CC9B201290ED1818C09070BD1018D0E
:106AF0000906090F042906D1808D0006000F02D176
:106B000005490120886010BDDFFF07C00005004077
:106B1000006C0040C00F00F000060040074801680C
:106B200000290AD00021016005480168054A89183A
:106B3000016005488168491C8160704740A10040A0
:106B400040A50040117A00001820002010B502F086
:106B50009DF8104C0E4B21785854491CCAB2981815
:106B600022702038C07F0A2801D0132A0ED308498A
:106B70000948521C00F0CEFF082805D0002803D099
:106B80000022114600F072FD0020207010BD0000B0
:106B90008C21002000200020E424002037B514467A
:106BA0000846064B6A46214600F0EAF80446694664
:106BB000002000F081FC20463EBD0000B9740100B9
:106BC0002021020C01D010211046020A01D01046EB
:106BD0000839020901D01046091F820801D0104669
:106BE000891E420801D0881E7047081A704730B4C9
:106BF0007446641E2578641CAB4200D21D46635D5A
:106C00005B00E31830BC184702E008C8121F08C137
:106C1000002AFAD170477047002001E001C1121F1D
:106C2000002AFBD170470000F0B51FB484B007986C
:106C30000699020D014314D04A484B4910184843A5
:106C400005140F9801280E981CD0281A401C002407
:106C5000464E4749009401910290002814DA4742B9
:106C600027E00F98012443A3012808D000210498AD
:106C70000F9A84600360C260416009B0F0BD0E9855
:106C8000C143F4E74042E2E7074612E0F80707D0C5
:106C90002246334601990098FFF770FB019100905E
:106CA0002246334610461946FFF768FB04460E4657
:106CB0007F10002FEAD10298019B0028009A0799C3
:106CC000069802DAFFF75AFB01E0FFF721FD0446C0
:106CD0000E460022284BFFF7B3FD03D80020C04327
:106CE000014607E00022254B20463146FFF794FA83
:106CF000FFF786FD102409E0002C0ADB0A2200239E
:106D0000FFF712FC059B30321A55641E02460A43F7
:106D1000F2D11122641C059B121B1C190F9B012B25
:106D200003D0012308430ED10AE0084304D0112008
:106D30000E9000200F9084E70E98151A6D1E0BE040
:106D40000E98824202DD00236D1C03E0824201DACC
:106D500000236D1E002BEED004980F998260C16055
:106D600030C08AE701FCFFFF104D00000000244006
:106D70000000F03F300000000000F0430000E03F62
:106D8000FFB597B00646002518E2252877D10024E4
:106D90002746FD49049400E00443761C3278012024
:106DA000203A90400842F7D130782A280ED00222AB
:106DB000307801463039092916D804990A235943F5
:106DC000303940181443761C0490F1E7189802C833
:106DD00004911890002904DA01204003044348423A
:106DE000049002200443761C30782E2814D104200D
:106DF00004437078761C2A2809D11898761C80C81C
:106E0000189009E00A214F43303FC719761C3078AB
:106E1000014630390929F5D930786C2810D006DCC4
:106E20004C281AD068280ED06A2817D104E074289C
:106E300013D07A2812D110E00120400504430CE061
:106E40000121090501E0032109050C437178814204
:106E500003D1012000052418761C761C307811908F
:106E600066280BD013DC58287DD009DC00287BD0A5
:106E70004528F6D04628F4D047281AD1A5E118E0D5
:106E8000632835D0642870D0652812D19DE1702820
:106E90006CD008DC6728F1D069287BD06E280DD033
:106EA0006F2806D1BAE073282ED0752871D07828C3
:106EB00059D01A9A199990476D1C7EE16002400FD3
:106EC000022809D003280DD00428189801680DD095
:106ED0000D60001D189070E11898EA1701680D60A8
:106EE0004A60F6E7189801680D80F2E70D70F0E748
:106EF00018986A4601781172001D1890002050728F
:106F000002A80090012005E0189802C818900020FF
:106F10000091C04361070DD5002101E00199491C92
:106F20000191B94212DA8142F8DB009A515C0029E2
:106F3000F4D10BE0002101E00199491C019181424B
:106F4000FADB019A0099895C0029F5D1019904982E
:106F50001A9B471A21463846199A00F097FA019968
:106F6000401945180BE04FE02CE113E04EE000988B
:106F700000990078491C00911A9A19999047019834
:106F8000401E0190401CF2D1214638461A9B199AA6
:106F900010E137E00A200021009001916002410FCA
:106FA000022907D0189A01CA1892C21794460329D9
:106FB00008D00AE01898C01DC108C90005C9189179
:106FC000944607E000B2C2179446042902D140B2A9
:106FD000C1178C4600226146944506DA0A46002114
:106FE000404291418C462D2102E0210504D52B2100
:106FF0006A461173012103E0E10701D02021F7E780
:10700000029155E00A200AE0102008E010200090CC
:107010000021042004430191082703E008200021F7
:10702000019100906002410F022907D0189A01CA0D
:10703000189200229446032908D008E01898C01D31
:10704000C108C90005C91891944603E080B204291B
:1070500000D1C0B200210291210729D511997029D0
:1070600006D0009A1021019B4A401A4305D00EE039
:1070700040216A461173012108E06146014306D0B0
:1070800030216A4611731199517302210291009ABD
:107090000821019B4A401A430AD16146014301D1AC
:1070A000610705D530216A46117301217F1E0291C7
:1070B0001199582904D035A10E910DA90D910DE01B
:1070C00037A1F9E76146019B009AFFF72DFA0E9B65
:1070D0008C469B5C0D9A521E0D92137061460143C3
:1070E000F0D10D9805A9081A20300190600703D54A
:1070F00001200004844300E001270198874201DD5C
:10710000381A00E0002001990090411802980918EF
:107110000498401A0490E00306D421461A9B199A59
:10712000049800F0B3F94519002706E003A81A9A5D
:10713000C05D199990476D1C7F1C02988742F5DB52
:10714000E0030CD521461A9B199A049800F09EF989
:10715000451904E01A9A3020199990476D1C00993E
:10716000481E00900029F5DC08E00D980D99007884
:10717000491C0D911A9A199990476D1C0199481E46
:1071800001900029F1DC63E109280100303132333C
:107190003435363738396162636465660000000053
:1071A000303132333435363738394142434445463D
:1071B0000000000000F05AF94519761C30780028CC
:1071C00000D0E2E528461BB0F0BD600700D40627DA
:1071D0001898C01DC108C90048680A680831C30F63
:1071E000DB071891190001D09CA108E0210501D509
:1071F0009BA104E0E10701D09AA100E09AA143001D
:1072000011985B08109165280CD006DC452809D040
:1072100046281DD0472841D141E0662818D067286C
:107220003CD13CE00021112F01DB112000E0781C53
:107230000191009008A911A8FFF7F6FC1399059198
:107240000021119A15927F1C12980197009150E02D
:107250000120C00703900120019008A9009711A800
:10726000FFF7E2FC139A149905920022119B0092F9
:1072700012981593059A0192002901D0104602E058
:10728000791C40180190381A01D5019804E0404259
:10729000401E0090781C0190C01B029043E0012F1B
:1072A00000DA01270021112F01DD112000E038460E
:1072B0000191009008A911A8FFF7B6FC1399059158
:1072C000119A0021129815920091019721070CD470
:1072D0000599B94201DB019900E00191012904DD22
:1072E000159A491E515C302906D0B84201DA011DB9
:1072F00005DA0121029115E00199491EEDE7002808
:1073000005DC0099411800910199091A03E0019ADE
:10731000411C914200DD01910099401A401C0290ED
:107320000120C0070390200706D4029901988142EA
:1073300002DB0020C043029000206946C87707AFF7
:10734000012103980337C907884224D002201190F5
:107350002B201290039800280CDA404203902D2035
:10736000129007E00A210398FEF710FF30317F1ECC
:10737000039039701199481E11900029F2DC03988E
:107380000028EFD1791E129808703078202108402B
:107390004530BF1E387006A8C01BC01D0390109852
:1073A0000078002800D00120019941180298C017E8
:1073B0000918039809180498401A401E0490E00325
:1073C00006D421461A9B199A049800F05FF84519D3
:1073D00010980078002803D01A9A199990476D1CCC
:1073E000E00324D521461A9B199A049800F04EF820
:1073F00045191CE00098002807DB00990598884291
:1074000003DD1598405C199901E0199930201A9A0A
:10741000904700986D1C401C00900298401E0290FE
:10742000002804D11A9A2E20199990476D1C0199B1
:10743000481E01900029DDDC05E038781A9A7F1C8F
:10744000199990476D1C0399481E03900029F4DC9C
:1074500021461A9B199A0498ACE600002D00000002
:107460002B0000002000000000000000F8B50446DA
:1074700000251E461746880404D405E0394620201E
:10748000B0476D1C641EF9D52846F8BDFFB504460B
:10749000002581B01E46C80301D5302700E0202713
:1074A000880404D505E038460399B0476D1C641E76
:1074B000F9D5284605B0F0BD0A68531C0B60107062
:1074C0007047F7B582B0002605461670007814465E
:1074D000002805D02846039901F0CAF906002DD1ED
:1074E000A87800281BD02078039F001D1F2824D8CF
:1074F000684679DF002821D121780322481C2070BA
:107500007A5421781922481C20707A542078C119A5
:107510006846008803F062F9217840182070A98835
:10752000002923D001208446AA680398002A07D0A6
:10753000227853189B1C1F2B04D90C2005B0F0BDDA
:107540000720FBE71346521C2270491CC1542278C5
:107550006746511C217087542378AA881818A96897
:10756000FEF72AFE2078297940182070E868002864
:1075700015D00021415622788C46D01C03991F2833
:10758000DBD8501C022320708B5422780A23501C15
:1075900020708B5420786246431C23700A54288A3A
:1075A000002809D028460094062202211030039BAF
:1075B00003F088F90600C1D1288B002809D028469D
:1075C0000094072203211830039B03F07BF9060087
:1075D000B4D1288C2F462037002808D000941522DB
:1075E00014213846039B03F06DF90600A6D1A86A62
:1075F000002805D02246039900F018FE06009DD110
:10760000E86A002805D02246039901F0FFF8060039
:1076100094D1387D002806D022462846039901F0EF
:10762000C7FA06008AD1304688E700B585B0142134
:107630006846FEF7DAFD002069460870019008727E
:1076400040220A824882684673DF002803D0002265
:10765000114600F00BF8022000F0AAFC002803D02D
:107660000022114600F002F805B000BDBFF34F8FB5
:1076700004490348C860BFF34F8F00BFFDE7000017
:107680000400FA0500ED00E010B5002903D08A07D8
:107690000024002A01D0072010BD0F4A0B4651607C
:1076A000107014215470414318469460FEF79DFDFC
:1076B00000200A49C0438860094840210160094A06
:1076C0001068FF231B0498430B04184310600648FE
:1076D0000160002010BD0000C420002000630040B5
:1076E00080E200E004E400E000E100E070B5114C4D
:1076F000A568002D06D0002A06D0002804D000235B
:10770000247809E0082070BD072070BD24265E4360
:10771000AE5D002E04D05B1CA342F7DB042070BDDD
:10772000242401265C432E5564196170A261036014
:10773000002070BDD0200020FFB59807002481B044
:107740001E4615460F4600280BD1002E09D001F029
:10775000A9F922490A9888610F70324600208E608C
:1077600008E0072005B0F0BD24234343D4549B1800
:107770001C75401CB842F7DB24204743BB1903208B
:1077800048700F461846CB6019461830002218235F
:107790002E465E43D3005B181C705C709D70586071
:1077A0003018521C032AF5DB0020C0433861BC703E
:1077B000FC7001240A482405046003211420FFF70B
:1077C00015F908480460084C0198A06003211120B5
:1077D000FFF70CF9606878610020C3E7D020002033
:1077E00080E200E000E100E000150140FEB5044643
:1077F0001D48174682680D46002A0CD001788C423D
:1078000001D2052D01D20720FEBD21462423594374
:10781000535C012B01D00820FEBD88184078012858
:107820001DD0002603F012F8C0000F490190C9686E
:107830004018694603F034F8002812D00121017085
:107840000A49446049680830E2C007490198C9689C
:1078500041180098487002F0DFFD0020FEBD2E4662
:10786000E0E70420FEBD0000D0200020001501400C
:10787000F8B5144D0446A868002809D029788C4230
:1078800001D30720F8BD24216143405C012801D0C9
:107890000820F8BD02F0DAFFC600E8686946301833
:1078A00002F0FEFF00280AD0022101704460E8685F
:1078B00031180098487002F0AFFD0020F8BD042098
:1078C000F8BD0000D020002070B50D4692B0002118
:1078D0006A46117007241171002812D0818800298E
:1078E00005D08168002902D00978490702D42046D2
:1078F00012B070BD02A9FFF7E4FD0028F8D102AE76
:1079000000E00026002D0BD0A8880028EFD101AAA6
:107910000AA92846FFF7D5FD0028E9D10AAA00E008
:107920000022684603790178304672DFE0E7000004
:1079300070B5054601461C220F48FEF73DFC0F4C72
:10794000002626702968002907D00822A018FEF713
:1079500033FC204608307ADF02E0084808307BDF3D
:10796000002808D1401E608004486670044A002147
:10797000001DFFF7BBFE70BDFC250020AC200020E1
:10798000E9A70100F8B52B4C0388284A284FE6895F
:107990000025102B18D011464968112B26D0122B28
:1079A0003DD0502B0FD1C288801DB2420BD1028B2B
:1079B000022A08D1C27E837E10021843C007C00F7E
:1079C00023D000F07BFCF8BD818851800146174828
:1079D000144608220E311030FEF7EEFB6570002EC3
:1079E00001D100F06BFC01203870F8BD0020C043CD
:1079F000508055700846FFF73BFF002803D0A1696F
:107A0000002900D088473D70F8BD0846FFF730FFD9
:107A10000028F9D0A1690029F6D08847F8BD811D5A
:107A2000024808221030FEF7C7FBCAE7AC2000204E
:107A30002A200020FC25002010B50446FFF7A2FFF5
:107A40002146034800F03AF8204600F0ADFF10BD93
:107A5000E424002030B5184B0D4604000FCB85B050
:107A600003936B4607C324D0002D22D00020C043CF
:107A7000A0822868A0610020A0752146684663DFC7
:107A8000002814D121786846817401210182A21C4A
:107A900004A90120A0DF002809D12946204601F0D1
:107AA00023F8002803D12946204602F057FE05B0EE
:107AB00030BD0E20FBE700008CA9010000281ED07D
:107AC00000291CD00A88102A14D0112A14D0502A58
:107AD00015D1CA88038A891D9A4202D10B8B022BC9
:107AE0000ED083889A420AD18369002B07D00A8B73
:107AF0001A311847898801E00021C9438182704703
:107B0000CA7E8B7E11021943C907C90F00D001211B
:107B10008175704707B584B000280DD0828A114B5B
:107B20009A420BD0827D002A08D06A46128B142A12
:107B300006D9072007B000BD0E20FBE70820F9E7B3
:107B40000022009201920292039282896B461A806F
:107B5000039106A9029101219970808A6946A6DFE6
:107B6000E8E70000FFFF000010B51D494B234A6AFB
:107B70009B02D21ACB8B80031B05C31A2020085E00
:107B800022245043181A01239B03C01863560C7F0C
:107B900053435443E2120124E4039B12121953434A
:107BA0009A12A301D2181A23CB5EC0135A43A31012
:107BB000D21892135043C2135243097ED2114A4342
:107BC0001111441A074801D5002402E0844200DD67
:107BD0000446211304A002F00BFC201310BD00008A
:107BE000C82500200000001968756D69203D20251A
:107BF000640A0D0070B52A4C7D22616A5202491058
:107C0000891A8A1010255243655FD3126B430E25E3
:107C1000655F52134D436D00EB18A5899B102D0431
:107C20005B190A25655F6A43D5100822A25E4A43A4
:107C30005110691801258914E288ED0349194A4356
:107C4000D1136A01101A1A13801A164A5043D20728
:107C5000904205D2002920D04000FEF797FA04E0B8
:107C600000291AD0FEF792FA4000C10816224943B3
:107C7000A25E490B51431423E35E82085A43122348
:107C800009135213E35E8918591809110C1821467B
:107C900005A002F0ADFB204670BD002070BD0000C5
:107CA000C8250020350C0000765F7072657373750F
:107CB00072655F753332203D2025640A0D00000097
:107CC00010B50E49C3100A8800115400801A1B1BFE
:107CD000022404220C5F40438A5E00136343504336
:107CE000DB1280131818486281004018803004129B
:107CF000214603A002F07CFB204610BDC8250020D1
:107D000074656D70203D2025640A0D0030B58FB07C
:107D1000644C1C2106A8FEF768FA882108A80175A2
:107D2000002301220DA9EE2002F0BCFC0123192240
:107D300006A9EF2002F0B6FC6846008B208068465A
:107D4000C07E01026846807E014361806846407FB4
:107D500001026846007F0143A18053A002F048FB66
:107D60006846C08BE08008A840780023010208A87C
:107D7000007801220143218108A8C078010208A8E7
:107D800080780143618108A84079010208A8007940
:107D90000143A18108A8C079010208A880790143A4
:107DA000E18108A8407A010208A8007A01432182F3
:107DB00008A8C07A010208A8807A0143618208A855
:107DC000407B010208A8007B0143A18208A8C07B78
:107DD000010208A8807B0143E18208A8407C20764C
:107DE000E12108A801750DA9EE2002F05BFC01233A
:107DF000082206A9EF2002F055FC2EA002F0F8FAA6
:107E00006846407E254601026846007E20350143D3
:107E100061836846807E207768461B214156007F3B
:107E200009010007000F0143E18368461D21415607
:107E3000007F09010009014321846846807FA87002
:107E400004230222E35EA25E21881EA002F0D0FA83
:107E50001623142212211020E35EA25E615E205ED2
:107E6000029003A80EC00E210C20615E205E0090DF
:107E700001910A230822E35EA25EE18816A002F0C7
:107E8000B7FA1E2002222021205EAA56615E6B46B0
:107E900007C31A22237FA25E217E1AA002F0A8FA4D
:107EA0000FB030BDC8250020676574205431200A0A
:107EB0000D0000006765742063616C2033200A0D9B
:107EC0000000000064696720545B25645D5B2564E5
:107ED0005D5B25645D0A000064696720505B256472
:107EE0005D5B25645D5B25645D5B25645D5B25648E
:107EF0005D5B25645D5B25645D5B25645D5B25647E
:107F00005D0A000064696720485B25645D5B256449
:107F10005D5B25645D5B25645D5B25645D5B25645D
:107F20005D0A000030B4002201290BD10B49C96859
:107F3000002907D00A4B94001C59844204D0521CDB
:107F4000022AF8D330BC7047022AFBD20348401CF7
:107F5000805C0028F6D030BC08470000902000204C
:107F6000A0A90100F0B500210F4D01270F4A0323FE
:107F70001B048C002E593C468C40044207D0B400B0
:107F8000A41826689E43266026681E4305E0B400B8
:107F9000A41826689E43266026682660491C02298C
:107FA000E7D30020F0BD0000A0A9010000070050A9
:107FB00010B5054A0146127A0020D20702D00846C1
:107FC00000F004F810BD000090200020FEB5064629
:107FD0006B480021476803690093BB00FB1801222E
:107FE000019392040D46674C3300FEF700FE180D16
:107FF0001111313E495B69756C757E898D8D8D8D52
:108000008DAFB6BCC2C4C4B4A560E2600570A2E086
:10801000A560E5606168490309D5A560E260022EAC
:1080200002D1E122D2000AE07D22520107E0E560A0
:10803000A260022E01D1C82201E0FF229132067017
:1080400064211046FEF7A2F878430022014624E09E
:10805000A560E5606168490304D5A560E260192266
:108060005201ECE7E560A260E5E7A560E5606168C4
:10807000490302D5A560E260D6E7E560A260DCE7CF
:10808000A560E5606168490302D5A560E26001E092
:10809000E560A2600670790030E00098FFF7A6FB6B
:1080A000014658E0A560E5606168490302D5A56016
:1080B000E26001E0E560A260067000223946ECE76C
:1080C000A560E5604DE060680121C9040A4682436D
:1080D000A2600840E06010E061680120C004024630
:1080E0008A43A2600140E160E7E761680120C004C3
:1080F00002468A43A2600140E16001990022CCE778
:10810000E560032080041FE007464069FFF7B0FBED
:1081100001461120801B01D0002904D0A560012058
:10812000C004E06017E001280BD9C821484364214E
:10813000FEF72CF87968002241437869FFF756FB77
:108140000146E5600120C004A06004E0A5600322B0
:108150009204E26006700846FEBDA5600123DB04C0
:10816000E360E5600AE0A560E260E5600122D20418
:1081700004E0A560E560E56003229204A260E9E7FF
:108180009020002000050050F8B5224801694A1CE3
:108190003DD024225143826889184E681E494C689C
:1081A00047690079E11B0D022D0AED1C002814D14E
:1081B00001201A4A00045060184A403A5060184999
:1081C00040000860174908601749012008602F2007
:1081D000FDF7B0FF0F4901200871B54200D23546C6
:1081E000E81900020C49000A403108600A49496850
:1081F000001B091B0902090A0002000AC91C81426E
:1082000004D901200649400480390860F8BD00F017
:1082100049FCF8BDD020002000150140401301406A
:1082200080E200E000E100E000100140F8B50D46FA
:1082300011780646881D14461F2801D90C20F8BD68
:1082400033880720062BFAD31927FF01BB4202D936
:10825000164A9342F3D17288062AF0D3BA4202D961
:10826000124FBA42EBD1114FBB4203D0BA4201D0F8
:108270009342E4D8481C052220706A5420781222C8
:10828000411C21702A5420784119308802F0A6FA46
:1082900021784018C0B220704119708802F09EFA0F
:1082A0002178401820700020F8BD0000FFFF00007A
:1082B00010B500221146FFF7D9F910BDF8B51648E0
:1082C00000F0EAF8144D0026103D144C002807D0A9
:1082D000616900291BD001206A461070684615E0CC
:1082E0002878002805D06169002910D068460670FA
:1082F0000CE0687800280CD0A16800226868FFF7BD
:1083000075FA002803D0A169002900D088472E7093
:10831000F8BD6168F1E70000BC200020FC250020CA
:1083200010B50E4900238A78CC78A24212D0521C94
:10833000D2B28A70022A00D18B708A78074B9200E1
:108340001C339A580260486910180002000A4861FC
:10835000012010BD0360002010BD0000D0200020CF
:10836000F7B5144C0025A76823691EE02421594362
:10837000C9194E68864202D9301A486017E0801B3E
:10838000751900264E600E750E699C460B6AB6463E
:10839000002E0AD0019E76193602360A8E60764685
:1083A000CE6016680E6261461160591CDED12361F1
:1083B000FEBD0000D02000200EB5112069460872D5
:1083C00015220FA102A87CDF002803D0002211464D
:1083D000FFF74CF9002000901022694601900A80B6
:1083E0003C224A808880FF209130C88068467ADF2E
:1083F000002803D000221146FFF738F90EBD000017
:10840000476966742041697220636F2E2050726F35
:108410006A65637432000000F8B51E4C20780028AD
:1084200037D02069002807D00026E068002805D052
:108430000025002E04D013E00126F6E70125F8E719
:10844000684651DF052806D0002806D000221146D4
:10845000FFF70CF904E0012602E021690098884743
:10846000002D12D1608869460880A06861DF052868
:1084700006D0002806D000221146FFF7F7F804E0E6
:10848000012502E0E168A0688847002ED8D0002DC1
:10849000CFD0F8BDF42000204188054802889142E1
:1084A00004D34088814201D80120704700207047E2
:1084B000B42000201048018CC9B2012917D1818C49
:1084C000090714D1018D09060A0F03D1828D120606
:1084D000120F0ED0090F012903D1828D1206120F3F
:1084E00007D0032903D1808D0006000F01D00020A2
:1084F0007047012070470000C00F00F0F8B5234816
:1085000001690091457833E02048E900C0680E1801
:1085100034782AE0182060437168641C0818B17828
:10852000E4B2A14200D100240178022902D003293B
:108530001BD113E0154A40682421926841438F18EB
:10854000397D002911D001F0A1FF002038750CE021
:1085500024277843C0180275006A03E00B49002203
:108560008B680869471CF3D108617078A042D1D1AB
:1085700028466D1EEDB20028C6D104480169009856
:10858000814201D00120F8BD0020F8BDD02000209C
:10859000F8B50446384800270169009146785CE048
:1085A0003548F100C2688D1851E0601C07D0324A8E
:1085B00024209268604321468018046A24E02878C9
:1085C000182141436A68401CC0B252182870A9782B
:1085D000884200D12F70284B516824209B68484363
:1085E000C0181378012B34D1037D002B31D193684F
:1085F0008360D368C360136903615269C2611E4A14
:108600005279002A00D087601B4B82685B699646CE
:108610009C46D31A1A02194B120A9A4202D2C36814
:10862000D21808E0724663469A1A1202C368120A08
:10863000934202D99A1A426000E0476087600122A3
:10864000C7600275921E0262084601F0EDFE601CD2
:10865000ABD1287869788842A7D13046761EF6B229
:1086600000289DD1044801690098814201D0012071
:10867000F8BD0020F8BD0000D0200020FFFF7F00E3
:1086800000249EB0514B0522092120460094FFF79B
:1086900053F8002803D000221146FEF7E7FF4C49AB
:1086A0000120FEF7F1FF002803D000221146FEF75B
:1086B000DDFF4649002350226439082000F004FB06
:1086C000002803D000221146FEF7D0FF6846009430
:1086D000047060DF002803D000221146FEF7C6FFB9
:1086E0003C4800F0E7FA002803D000221146FEF7CC
:1086F000BDFF01F03DFB01F063FDFFF75DFE364875
:108700000090334869461430FFF7A4F9002803D0DD
:1087100000221146FEF7AAFF062118A801752F486E
:1087200000681C902A481430017818A881743821F8
:108730006846FDF75AFD02216846017084700125E4
:1087400085801DA8029038210EA8FDF74EFD10A8C7
:1087500005821CA815900EA96846FFF7B5F80028F9
:1087600003D000221146FEF781FF1C216846FDF769
:108770003CFD0520C00301900F20000402900094EE
:10878000032168460173C481047415480590154897
:1087900006906846FFF7CCF8002803D00022114667
:1087A000FEF764FF00F0F0F90FA001F021FEFEF7E4
:1087B0003CFF01F033FD14491248086040DF0028F7
:1087C000FCD000221146FEF751FFF7E7A021002060
:1087D000D0240020397A0100858901009CA901007C
:1087E000818A0100B1820100476966742041697283
:1087F0002050726F6A6563742053746172740A0D3D
:10880000000000003546526E0006014070B5054676
:1088100000790E46801C1446C0B21178821C8A185A
:108820001F2A01D90C2070BD0A46491C2170401C2A
:10883000B0542078FF22411C2170325420788119D5
:10884000288801F0CBFF21784018C0B22070AA8898
:10885000002A09D0A968002908D08019FDF7ACFCCE
:108860002078297940182070002070BD072070BD45
:10887000F8B514780746A01C15460E461F2803D8E5
:108880007878801C1F2801D90C20F8BD1D20001B02
:1088900080B26946864608803019801C7DDF00283A
:1088A000F3D13878022805D168460088704501D890
:1088B000092107E078780821002801D0704501D906
:1088C00068460088421C3255641CE2B2B1542978D3
:1088D000801C081828700020F8BD000031B5054C38
:1088E00004E0401E00902046FDF714FC009800288C
:1088F000F7D138BDE7030000012181400148C16084
:108900007047000000050050012181400148C1600E
:108910007047000000050050012181400148C160FE
:10892000704700000005005002490969C140C807AE
:10893000C00F70470005005001218140014881604F
:10894000704700000005005001218140014881600E
:1089500070470000000500500121814001488160FE
:108960007047000000050050054A0121536881400E
:10897000C340D807C00F01D0D160704791607047E5
:108980000005005030B5064B00209A80054C02E0EF
:108990000D5C2554401C9042FADB0120187030BD5C
:1089A00022250020A825002070B5334D04460188FB
:1089B000688814293CD00ADC102918D0112922D04B
:1089C000132913D12A46103200217FDF08E017292E
:1089D00028D0192939D0522908D100221146A9DFFF
:1089E000002803D000221146FEF740FE70BD07208C
:1089F000FFF7DEFA002803D000221146FEF736FE0C
:108A0000A088688070BD0020FFF7D2FA002803D04C
:108A100000221146FEF72AFE0020C0436880FEF7C0
:108A200004FE70BD3222A11D1448FDF7C5FB70BDC8
:108A30001249E389CA88891D9A4202D1002281DF46
:108A4000CEE70022114681DFCAE7A0790028EED1E7
:108A5000FFF7AEFA002803D000221146FEF706FE0B
:108A60000420FFF77FFA002803D000221146FEF70A
:108A7000FDFD34DFB4E700000020002008210020C5
:108A800010B50078002809D105483B21408876DFE1
:108A9000002803D000221146FEF7E8FD10BD0000BB
:108AA0000020002070B501240B49600408600B49C8
:108AB00040108860094940398860094D6C602F205A
:108AC000FDF738FBAC60074D00242F206C61FDF7EB
:108AD00031FB2C7170BD000080E100E040130140CB
:108AE00000100140D020002070B500240546601C15
:108AF00090B00007000F08A9103008940870601C9F
:108B00000007000F103048708878F9263040801C2C
:108B100088701C2101A8FDF768FB694608791021BF
:108B2000084369460871029408A8049405940794C0
:108B30000690287808A98871032069468884112046
:108B40000094087048708878F7213040801C0840F5
:108B5000EF210840012630436946887014210AA895
:108B6000FDF743FB09A80A9068460B9069460E86FC
:108B700014204C8688862B4668880C330AAA01A9E3
:108B8000A2DF10B070BD000008491E200880887860
:108B900001221043E1221040DF220C301040887087
:108BA0000720C870102008717047000010200020B6
:108BB000F7B582B002981446006B0F46002833D0F8
:108BC000029800252030009028E00298016B0C20CC
:108BD00068430E18217830794A1C2270C01C7854E2
:108BE00020781622411C21703A542078C11930880F
:108BF00001F0F4FD21784018C0B22070B288002A3C
:108C000009D0B16800290FD0C019FDF7D5FA207836
:108C10003179401820706D1C0098EDB2007DA8429B
:108C2000D3D8002005B0F0BD0720FBE7F0B5124C0B
:108C300003278D002D192F6000259E003619356001
:108C40000E4EF1607361059B0121002B0AD0830059
:108C50001B191F6093001B191D603261B06007482B
:108C60004030C1620648706204203060054881606F
:108C7000016005488560F0BD0007005000250040F8
:108C800000509D0000200040002100400448816801
:108C90000129FCD10021816002488069C0B270477F
:108CA000002100400025004010B508461146C0468E
:108CB000C04610BD002803D00249C860002070479C
:108CC0000E207047F420002070B5002901D08C07D9
:108CD00001D0072070BD064C0125A16062800549C6
:108CE000636010DF0028F5D12570162026DF70BDE7
:108CF000F4200020A98C010010B50D4C0221217038
:108D000006216170A0700020E07020716071052262
:108D100001212046FDF75CFEA071627821460548DE
:108D2000521CFEF7F7FE214603A001F061FB10BDC7
:108D30002B200020E42400205B25735D0A00000046
:108D40003EB50021684601700172F524047141713D
:108D50000123022201A9EE2001F0A4FC684604725E
:108D60000023012202A9EE2001F09CFC01231A46F7
:108D70006946EF2001F096FC6846017801A001F0F9
:108D800037FB3EBD636F6E666967205B3078257880
:108D90005D0A00003EB50021684601700172F424AE
:108DA00004716B2141710123022201A9EE2001F01F
:108DB00079FC684604720023012202A9EE2001F02A
:108DC00071FC01231A466946EF2001F06BFC6846EE
:108DD000017802A001F00CFB3EBD00004354524C50
:108DE0005F4D454153205B307825785D0A000000D7
:108DF00008B5F421684601706921417001230222FF
:108E00006946EE2001F04EFC08BD00003EB5002191
:108E1000684601700172F22404710321417101233B
:108E2000022201A9EE2001F03DFC684604720023F5
:108E3000012202A9EE2001F035FC01231A46694601
:108E4000EF2001F02FFC6846017802A001F0D0FA73
:108E50003EBD00006374726F6C2068756D205B30DE
:108E60007825785D0A00000010B500F05DFC04462E
:108E7000FFF766FF0120FFF731FDFFF7C7FF012075
:108E8000FFF72CFDFFF786FFFEF740FF00F028F804
:108E9000602C214603D003A001F0AAFA10BD09A05E
:108EA000FAE70000424D45323830204944204E6FE9
:108EB00020696E746969616C5B307825785D0A0D94
:108EC00000000000424D4532383020494420696E90
:108ED000746969616C5B307825785D0A0D0000006B
:108EE0003EB50021684601700172F42404716821C6
:108EF00041710123022201A9EE2001F0D3FB684653
:108F000004720023012202A9EE2001F0CBFB012311
:108F10001A466946EF2001F0C5FB6846017802A0B9
:108F200001F066FA3EBD00004354524C5F4D45418E
:108F300053205B307825785D0A000000FEB50646B8
:108F40000025684605808580114F694601A800F01C
:108F500001FC104C0220207007206070A670E570A4
:108F600078782071684600880622010AA171607134
:108F700001212046FDF72CFDE0716278214606486C
:108F8000521CFEF7C7FD214604A001F031FAFEBDD8
:108F9000BD25002058200020E42400205B25735DBF
:108FA0000A000000F8B50D466349624E0A69D20610
:108FB000D30F0A6909695206D20F5200134389067A
:108FC000C90F89000B43012102273370022B0CD0FB
:108FD0000022042B0CD0062B01D0072B02D072707C
:108FE000F27007E0F270727004E0F170717001E0ED
:108FF000F2707770514C002822785BD0F07800280E
:1090000058D01300FDF7F3FD0705232C353E4652DB
:109010001000E120C000854259D3281A2C2804D220
:1090200027700820FFF7A0FCF8BD45482818332812
:1090300001D203205CE0424833382818052801D2C9
:10904000042055E03F488542EED3062050E008203A
:10905000FFF78AFCE120C0008542E5D32770F8BD08
:109060000820FFF781FC374838388542F7D30320C2
:109070001AE00820FFF778FC3248401F8542EED303
:10908000042011E00820FFF76FFC2E488542E6D34C
:10909000052009E00820FFF737FC2A488542DED387
:1090A00070780228DBD106202070F8BD0820FFF779
:1090B0002BFCF8BD234E2448DA3E1300FDF797FD44
:1090C00007051A25282D32353800854201D2217036
:1090D000A7E71D4840422818B62801D22770E5E7C7
:1090E0001748FD3028185B28A3D3B542DED3A7E785
:1090F0002070DBE714482E38854292D21320FFF708
:1091000003FC20780128D1D18BE78542DFD3CDE75E
:109110000D485B308542E1D3C8E70B48B630854245
:10912000C4D286E7B542C1D28AE708A001F060F94F
:109130000520DDE7BD250020000500507820002037
:10914000CCF8FFFF6C070000810500004241545439
:109150005F4449535F46554C4C200A000249014880
:10916000086070473546526E0006014010B5164C37
:10917000022121700F216170A0700020E070207129
:109180000A2212A1601DFDF717F860780121401E28
:1091900082B22046FDF71CFCE073627821460E483F
:1091A000521CFEF7B7FC0020FF2105E0225C002ADC
:1091B00000D12154401CC0B262788242F6D80249E4
:1091C00006A001F015F910BD2C2500202047696686
:1091D0007420416972200000E424002025730000FF
:1091E00070B5044C024D256001F072F8256070BD29
:1091F0003546526E0006014010B507480121002295
:1092000089030068FEF7F2FA002803D00022114615
:10921000FEF72CFA10BD00000820002010B502480F
:109220000068FEF725FB10BD0820002010B50F4C8C
:109230000221217009216170A0700020E07020716E
:1092400060710121A171E171207208222046FDF7B1
:10925000BFFB6072627821460548521CFEF75AFC3B
:10926000214604A001F0C4F810BD00003C250020F8
:10927000E42400205B25735D0A00000038B5124C21
:109280000221217009216170A0700020E07020711E
:1092900069460A5C2318401CC0B25A710428F8D3EE
:1092A00060780121401E82B20748FDF791FB607291
:1092B000627805490548521CFEF72CFC024904A0BF
:1092C00001F096F838BD000070250020E42400204D
:1092D0005B25735D0A00000010B50C4C0221217063
:1092E00007216170A0700020E0702071A071607192
:1092F000062201212046FDF76BFBE07162782146D2
:109300000348521CFEF706FC10BD00004020002060
:10931000E42400207CB51D4902220C4658342270FA
:109320000E226270A070C879E070087A20710D4634
:10933000084686307C35417929706171C1880D22DB
:1093400049BA6980E180018949BAA98021814189AE
:1093500049BAE98061818089012140BA2881A081D0
:109360002046FDF735FBA073627821460848521C61
:10937000FEF7D0FB2989E88800900191AB886A88C4
:10938000297804A001F034F87CBD000022250020DB
:10939000E424002074696D6520706572696F642033
:1093A0007365745B25645D5B25645D5B25645D5B53
:1093B00025645D5B25645D0A0000000070B50F4CFC
:1093C000802106460E43214686310846A2889C38F5
:1093D000FCF7F2FE2546163DAE7068780121401E6E
:1093E00082B22846FDF7F4FA21468631497868545E
:1093F000A28829460248FEF78DFB70BD2225002079
:10940000E424002038B5184902220C467234227038
:1094100009226270A070C879E070087A207108464D
:10942000124D863041792970617181796970A1711D
:10943000C179A970E171007AE870207208220121D7
:109440002046FDF7C5FA6072627821460848521C32
:10945000FEF760FBE8780090AB786A78297805A081
:1094600000F0C6FF38BD0000222500208C2000201F
:10947000E4240020657863656C6C5B25645D2C6674
:109480006169725B25645D6D6564695B25645D2C53
:109490006261645B25645D0A0000000038B5144C0D
:1094A00002222270072211496270A070C879E07010
:1094B000087A2071002069460A5C2318401CC0B25B
:1094C0005A710228F8D360780121401E82B2084800
:1094D000FDF77EFAE071627805490648521CFEF7F6
:1094E00019FB034904A000F083FF38BD22250020AA
:1094F00060200020E42400205B25735D0A0000004A
:1095000070B50E4C0221217007216170A0700025FA
:10951000E5702571A5716571062201212046FDF7D0
:1095200057FAE071627821460548521CFEF7F2FABC
:10953000294604A000F05CFF70BD00004820002018
:10954000E4240020466F72636520646174615B25CA
:10955000645D0A0010B50E4C022222700722627070
:10956000A0700020E0702071080AA07161710622CD
:1095700001212046FDF72CFAE0716278214605486A
:10958000521CFEF7C7FA214603A000F031FF10BDC0
:1095900050200020E42400205B25735D0A000000B9
:1095A000054A0121116005480368002BFCD10448DD
:1095B0008068516080B270470070004000740040C5
:1095C00000750040F7B5002088B00F4601460790AF
:1095D00068460171F321164600253B4C0174FFF7E4
:1095E00007FC0023012204A9EE2001F05BF801230F
:1095F0001A4601A9EF2001F055F86846017933A019
:1096000000F0F6FE68460079000709D433A000F0A8
:10961000EFFE6D1CEDB2032DE3D900200BB0F0BDC1
:10962000F721684601740023012204A9EE2001F00D
:1096300039F80123082202A9EF2001F033F80023B2
:10964000012204A9EE2001F02DF801231A4601A9F8
:10965000EF2001F027F86846007A01036846407A57
:10966000000101436846807A000901436846396079
:10967000C07A01036846007B000101436846407BD5
:1096800000090143089801606846C08940BA3080EB
:1096900008980068FEF714FBA0623868FEF7AAFA83
:1096A000E0623088FEF760FA20630898338801682A
:1096B0003A680CA000F09CFE28340ECC12A000F0FA
:1096C00097FE0798AAE70000C8250020737461740C
:1096D00075735B307825785D0A0000006C6F6F70E1
:1096E0000A00000054656D705B307825785D2C7041
:1096F000726573735B307825785D2C68756D695B76
:10970000307825785D0A000074656D70203D5B251A
:10971000645D2C70726573735B25645D2C68756D78
:10972000695B25645D0A0D001CB500216846017067
:10973000D02101710023012201A9EE2000F0B2FF27
:1097400001231A466946EF2000F0ACFF6846007816
:109750001CBD0000F0B505468DB00F4606206946D9
:109760000873002407940023012203A9E02000F0DD
:1097700099FF012305220AA9E12000F093FF694621
:10978000088D2880488D388008A90E7B2249411811
:10979000E3208000814202D20120079008E0641C8F
:1097A000E4B2052C02D900200DB0F0BD052CDAD3AF
:1097B0003F883846FCF752FE184A194BFCF7DEFD8D
:1097C000FCF782FE01902D882846FCF747FE154ADB
:1097D000154BFCF7D3FDFCF777FE14490C91FCF711
:1097E0005FFE044600910198FCF75AFE009A04AB14
:1097F0000894099223C30E486A460178C2C20C99A4
:10980000CB7841684A1C42600A4802780AA000F0FE
:10981000EFFD0798C8E700008FFBFFFF2F6EA30145
:10982000BC05623F85EB51B81E851740BD25002061
:10983000782000201820002025642025642025643D
:1098400020256420256420256420256620256420A9
:109850002566200A00000000F8B500252C460020EF
:10986000FFF75AF8FA20FCF745FCFFF799FE451977
:109870009820FCF73FFC0020FFF76EF80920FFF767
:109880002DF8641CE4B20A2CE9D30A212846FCF71F
:109890007DFC0646FCF7E2FD0022154BFCF76EFD51
:1098A000FCF712FE074613480068FCF7F9FD044672
:1098B0000D463846FCF7F4FD0F4A104BFCF75EFDF1
:1098C00022462B46FCF74CFDFCF7FEFDFF21C905A7
:1098D0000446C84200D300242046FCF7E1FD0246BE
:1098E0000B46314606A000F083FD2046F8BD00007F
:1098F0000000743F882000209A9999999999C93F4E
:109900006164635F64617461203D205B25645D5B1D
:1099100025665D0A000000001CB500216846017044
:10992000182101710023012201A9E02000F0BAFEF4
:1099300001231A466946E12000F0B4FE684600782B
:109940001CBD000070B50646FF20114DF530FEF736
:10995000C5FF104C0220207007206070A670E879C7
:10996000E070287A20710020A07160710622012128
:109970002046FDF72DF8E071627821460648521C1A
:10998000FEF7C8F80548018805A000F031FD70BD5C
:109990002225002068200020E42400202820002028
:1099A000426C655F426F64795F54656D705B2564DE
:1099B0005D0A0000FEB507460021684601808180EF
:1099C000164D01A900F0A0F806462C460220683486
:1099D000207009206070A770E879E070287A207103
:1099E000684600880822010AA17160716846808873
:1099F000010A2172E07101212046FCF7E9FF607243
:109A0000627821460648521CFEF784F8684683882F
:109A10000288314603A000F0EBFCFEBD22250020A9
:109A2000E4240020737461745B307825785D2073C2
:109A300079735F4765745F436F325F53656E736F11
:109A4000725B25645D5B25645D0A0000F1B582B040
:109A50001E4F1F4EFFF700FF0A210090FCF7D0FBBE
:109A6000FCF70AFD85B22846FCF7F0FCB060194C03
:109A700002202070072060700298A070F879E070D2
:109A8000387A2071280AA07165710098FCF708FDEA
:109A900002460B4610A0009500F0AAFC6078012158
:109AA000401E82B22046FCF793FFE07162782146A7
:109AB0000F48521CFEF72EF8B068FCF7F1FC024686
:109AC0000B460CA000F094FCFEBD000022250020F7
:109AD0000025002070200020447573742064617498
:109AE00061205B25665D5B25645D200A0D0000003A
:109AF000E4240020447573742073656E736F725B89
:109B000025665D0A00000000F0B50646002085B01D
:109B10000D46074600902B49294808602A4C60688A
:109B2000962846D3972060600123092201A9B52019
:109B300000F0B8FD7F1CFFB20A2F06D920883080C4
:109B400060882880009805B0F0BD684680790028BC
:109B500008D0012825D0802823D068468079102895
:109B600021D01AE06846808840BA30806846017B80
:109B7000C27A0802104340BA2880308820802888A2
:109B800060800020009030887D2109018842CBD878
:109B900028884B21C9008842C6D80A49084808606D
:109BA000CCE70090C0E721883180618810202980AF
:109BB000C9E720883080608828800320C3E7000040
:109BC0003546526E00060140802000202F4910B516
:109BD00003202E4A54310860091D08602B490C31BE
:109BE0000860091F0860294960310860091D086084
:109BF000264970310860091D086000211060234A61
:109C000038321060214A20321060204A4032106001
:109C1000121D10601D4B4C3318601C4B283318600C
:109C20001A4810300160001D0160001D01601748D6
:109C30003030016004201060101D0160134A503262
:109C40001160124A3C32116001600D20FEF774FE73
:109C50001320FEF771FE1020FEF76EFE0C4C012063
:109C6000E0608003E0601820FEF766FE1920FEF732
:109C700063FE1C20FEF760FE1D20FEF75DFE0A203D
:109C8000FEF75AFEFF200130E06010BD00070050D3
:109C90000005005010B5174C022121700E21617093
:109CA000A0700021E170217108462218401CC0B24A
:109CB00051710928F9D360780121401E82B20D4804
:109CC000FCF786FEA07362780A490B48521CFDF728
:109CD00021FF0020FF2105E0225C002A00D1215451
:109CE000401CC0B262788242F6D8024903A000F05C
:109CF0007FFB10BD46250020E42400205B25735D1A
:109D00000A00000010B5144C0222227006221149EC
:109D10006270A070C879E070097A2171012801D0C1
:109D2000002801D100F03CF800206071607801212A
:109D3000401E82B20848FCF74BFEA07162780649CB
:109D40000648521CFDF7E6FEE17805A000F050FB46
:109D500010BD00002225002039200020E42400202E
:109D60007379735F494F4E5F4F4E5B25645D0A0008
:109D700010B500F07DFAFFF729FF06490120486081
:109D80000649054A4A60086000F090FA00F03AFC83
:109D900010BD0000007300400A0400000075004080
:109DA00010B500280FD00E20FEF7CEFD0220FEF7E2
:109DB000A3FD0320FEF7A0FD1520FEF79DFD162054
:109DC000FEF79AFD10BD0E20FEF796FD0220FEF76D
:109DD000BBFD0320FEF7B8FD1520FEF7B5FD1620EC
:109DE000FEF7B2FD10BD0000FEB500206946888078
:109DF00008806A49664F674D6748086068482C4686
:109E000001680C3C491C01602079012600280BD117
:109E1000267100F029F900F02DF9E1203E710001D2
:109E2000386060A000F0E4FA1220FEF77DFD002803
:109E300043D06078401CC0B26070012803D92670FE
:109E40001320FEF759FD2078002802D00520FEF7E8
:109E50006BFD1120FEF768FD002832D0A078401C71
:109E6000C1B2A17053A000F0C3FAA07803282AD988
:109E700055A000F0BDFA0820FEF766FD0220E07054
:109E8000FFF7CCF90A20FEF75FFD0020FFF788FFFF
:109E90001820FEF759FD1920FEF756FD1C20FEF78D
:109EA00053FD1D20FEF750FD0020FEF74DFD002064
:109EB00038711320FEF720FD05E00020607020704F
:109EC000C7E70020A0700F20FEF72EFD002806D067
:109ED000E1203E71000138603FA000F089FA387936
:109EE000002801D0FCF7E4FC1420FEF71DFD00283B
:109EF0000DD0002068702978491C2970A870E97875
:109F000000290CD0E870FFF74BFF38A00CE0A878D0
:109F1000002800D06E700020A870287006E0EE7057
:109F20000120FFF73DFF34A000F062FAE1783548E8
:109F3000002914D0012904D002290DD003291AD1F7
:109F40000DE00078002816D10220E070FFF766F9D6
:109F50000A20FEF7F9FC0EE00320E0700BE0007829
:109F6000002808D0E670FFF747F90820FEF7ECFC60
:109F70000A20FEF7C1FC694601A8FFF7EBFB684623
:109F800001882078FFF70EF8044903480860FEBDF9
:109F900000250020242000203546526E0006014096
:109FA0008420002053656E736F7220696E69740A95
:109FB00000000000506F77657220737720636E7425
:109FC0005B25645D0A0000004D61696E20506F776B
:109FD0006572204F66660A00647573742073656E3F
:109FE000736F72204F6E200A00000000494F4E2010
:109FF0004F4646200A000000494F4E204F4E200A8F
:10A00000000000002A20002070B50024FFF784FC27
:10A010000546014608A000F0EBF9142D07D02046B4
:10A02000641CE4B20328F1D300F030F870BD294677
:10A0300006A000F0DDF9F7E7476173204944203DB1
:10A04000205B307825785D200A00000053544320BF
:10A050003331313520494E495449414C495A452004
:10A06000204F4B200A00000010B5FEF7FDFEFFF761
:10A07000CBFF10BD04480F210170322141706421D3
:10A0800081706521C17070478C20002008B50021C7
:10A090006846017019214170012302226946E020BF
:10A0A00000F000FB08BD00003EB5002100916A46AB
:10A0B00001911181174C022222700D226270A07052
:10A0C000E1702171124D02AA01A96846FFF77AFAE0
:10A0D000288D01126171A071286B010CE171010AD8
:10A0E00021726072E86A010CA172010AE1722073A8
:10A0F00060780121401E82B22046FCF769FC607343
:10A10000627821460448521CFDF704FD3EBD000064
:10A11000C825002055250020E42400201CB5124C41
:10A12000022121700C216170A0700020E07020716C
:10A1300069460A5C2318401CC0B25A710728F8D33C
:10A1400060780121401E82B20748FCF741FC207371
:10A15000627805490548521CFDF7DCFC024904A061
:10A1600000F046F91CBD000063250020E424002017
:10A170005B25735D0A00000010B50D4C02212170B3
:10A1800006216170A0700020E070207160710522CE
:10A1900001212046FCF71CFCA0716278214605488D
:10A1A000521CFDF7B7FC214603A000F021F910BDB9
:10A1B00032200020E42400205B25735D0A000000AB
:10A1C00010B5124A01211248FDF790FA002803D079
:10A1D00000221146FDF74AFA0D480E4A0121001DE2
:10A1E000FDF784FA002803D000221146FDF73EFA5D
:10A1F0000748094A01210830FDF778FA002803D002
:10A2000000221146FDF732FA10BD0000E99D010061
:10A2100004200020E19101005D91010010B5074884
:10A2200001210022C9034068FDF7E0FA002803D0AD
:10A2300000221146FDF71AFA10BD00000020002090
:10A240000449C8610448C1690129FCD10021C161E8
:10A2500070470000002500400021004000B5024684
:10A2600002E0521CFFF7ECFF10780028F9D100BD86
:10A2700008B5002000900B230A2209210820FEF7D0
:10A28000D5FC07490420486006490A68FF231B04DF
:10A290009A4303239B051A430A600349086008BDDB
:10A2A0000023004000E400E000E100E00548012157
:10A2B000C160054A426082680A43826003480160C7
:10A2C0007047000000050140FF7F020000000140D0
:10A2D000F8B5454C0025207826468636002822D041
:10A2E00025703078022803D0A5706570E570F8BD40
:10A2F0000127677070783946401E82B23A4886302E
:10A30000FCF766FB7178715C814208D1A770E5703B
:10A31000B078A071F078E0713079207210E0E770C9
:10A320006570A57002E0E078002809D02FA000F049
:10A330005FF8A5706570E570B078FFF73FF8F8BD7D
:10A3400060780028FBD0A0780028F8D0A570657050
:10A35000A079014641390B00FCF749FC160D10139A
:10A3600016191C1F2225280C2B2E403134373A3D5C
:10A370000C0C430CE3E7FFF78DFCF8BDFEF7ACFFD8
:10A38000F8BDFFF791FEF8BDFFF7BAF8F8BDFFF78B
:10A39000E1F8F8BDFEF7D2FDF8BDFEF7ADFCF8BD63
:10A3A000FFF7BCFEF8BDFFF7E7FEF8BDFEF766FF5E
:10A3B000F8BDFFF773F8F8BDFEF7ACFFF8BDFFF787
:10A3C000C1FAF8BDFFF742FBF8BDFFF7F3FAF8BD9D
:10A3D000FFF798FCF8BDFFF715F8F8BDFEF7C6FECD
:10A3E000F8BDFEF723FFF8BD22250020310A0D003D
:10A3F0000FB400B5A1B080216846FBF7F6FE23AA92
:10A4000068462299FCF7CAFB6846FFF727FF21B090
:10A4100008BC04B01847000001200249000508608C
:10A420007047000000E200E0F0B5174F2421BC683F
:10A4300041430D1939694A1C09D024224A4316198F
:10A440006B687268934204D8D21A726029623861CC
:10A45000F0BD0A4602E00A46396A9B1B4E1C0BD02F
:10A4600024264E4337197E689E42F4D324264E4359
:10A4700036197768FF1A77606B60296224214A4396
:10A4800011190862F0BD0000D020002070B5194CF1
:10A490002269A5681346114606E0814207D00A46A4
:10A4A000242671434919096A4E1CF6D170BD002E4D
:10A4B000FCD08A420CD1242043435819006A206101
:10A4C000401C05D10C4B0120986000236361607132
:10A4D000242041434819242341685A43006A5219F1
:10A4E0001062421CE2D024225043401942685118A5
:10A4F000416070BDD020002000100140F8B51D4C17
:10A500002569681C35D01C48002640686169401ADE
:10A5100007023F0A19E024204543A0682A18506822
:10A52000B84214D8A3693F1A8619156A002B09D0BE
:10A53000D16990699847002807D000221146FDF79D
:10A5400095F802E09169D0698847681CE3D1A17849
:10A55000E078814206D1401CC0B2E070022801D1EF
:10A560000020E07003490006800D1C310E50FFF7FB
:10A5700053FFF8BDD020002000150140FEB51D4856
:10A5800001680291002101601B48816B01911B4908
:10A59000816319484038C2690092C161184C80201B
:10A5A000A060C505A5600420FBF794FD20690006A6
:10A5B00002D5206940000CD400261127E560042054
:10A5C000FBF788FDA5600420FBF784FD20690006E9
:10A5D00001D5012601E07F1EF0D20749019888636A
:10A5E000054900984039C861024902980860304620
:10A5F000FEBD000000450040400700500D06000071
:10A600000005005010B50C490A4888630A494039D2
:10A61000C8610A4900208860C86109481E2181601C
:10A620000721C1603321C904416205210160FFF7A0
:10A63000A5FF10BD0C06000040070050004100407F
:10A6400000450040F0B5134C002921D0124A0023E8
:10A650009360124E012535609768002F01D1641E6A
:10A66000FAD19360002C0ED00D4FBF690770401CCB
:10A67000491E0906090EEFD1536075615068002824
:10A68000FCD00120F0BD5360756150680028FCD0FB
:10A690000020F0BD204E000000410040004000407E
:10A6A00000450040FFB5002481B01F461646054610
:10A6B000002A11D0FFF762FF00280DD00849680872
:10A6C0008860E80702983A46314602D0FFF7BAFFA1
:10A6D00001E000F007F80446204605B0F0BD000098
:10A6E00080450040F0B5194C9646002922D0184A02
:10A6F0000378D361401C174E01258446B560164B84
:10A700000027D86900280ED0002C0ED0DF61491E2A
:10A710000906090E10D0604602780D48C2616046F5
:10A72000401C8446EDE7641EEBD15F60756158689C
:10A730000028FCD00020F0BD7046002804D05F60E7
:10A74000756158680028FCD00120F0BD204E000043
:10A7500000450040004000400041004070B58EB010
:10A7600005461C216846FBF740FD694608780C2128
:10A7700008436946087000240194039404940594E6
:10A780000694287808A98870022069460884601C0D
:10A790000007000F10300794087711204877887F52
:10A7A000F9210840F721801C0840EF2108400126CC
:10A7B000304369468877142109A8FBF716FD08A8DD
:10A7C000099007A80A9069468E851420CC850886D2
:10A7D00068882B1D09AAA2DF0EB070BD0870000AA0
:10A7E000487002207047000038B51549154A48885E
:10A7F00090420FD04A78144C521CD2B24A70237B3C
:10A80000934208D3083175DF002803D0A1690029DD
:10A8100000D0884738BD00254D70217C002907D025
:10A820003B2176DF002803D0A169002900D08847AA
:10A8300061690029EED068460570884738BD000080
:10A84000AC200020FFFF0000FC25002012494868D2
:10A85000C005C00D19D0103840B2002807DA020731
:10A86000120F083A920892005118C96904E0810851
:10A870000A4A8900891809688007C00EC140080685
:10A88000800F012803D0032803D002207047002046
:10A89000704701207047000000ED00E000E400E098
:10A8A00042788378521C934200D10022037893426D
:10A8B00001D1002070470A60416840781822504357
:10A8C00008187047F8B51546069C1E460746022232
:10A8D000009400F00AF8002806D1334610222946D9
:10A8E0003846009400F001F8F8BDFFB583B0074684
:10A8F00000200C9C8646267805463AE07868A90038
:10A9000041180A88684682804988C18000226946C9
:10A9100001A865DF002810D16846017805988142BA
:10A9200026D17046002801D0002200E002222078C3
:10A93000891841181F2902D90C2007B0F0BD7146B3
:10A94000002908D1401CC0B2411C069B049A21700A
:10A950001A5401208646217806980A18694601A8EB
:10A9600065DF0028E9D16946207809784018207011
:10A970006D1C3888A842C1DC7046002804D02078BD
:10A980000699801B401E88550020D6E79ECADC240D
:10A990000EE5A9E093F3A3B50000406E01000000AE
:10A9A000100000001100000010000300257F0100CE
:10A9B00011000300257F0100D8A90100002000201C
:10A9C00008010000086C0100E0AA01000821002035
:10A9D000100D0000186C01000000FFFF00000000D7
:10A9E0000000000000000000000000000000000067
:10A9F0000000000000000000000000000000000057
:10AA00000000000000000000000000000000000046
:10AA10000000000000000000000000000000000036
:10AA20000000000000000000000000000000000026
:10AA30000000000000000000000000000000000016
:10AA40000000000000000000000000000000000006
:10AA500000000000000000000000000000000000F6
:10AA60008FC2F53D00000000000000000000000063
:10AA700000000000000000000000000000000000D6
:10AA80000024F400000000000000000000000000AE
:10AA900000000000000000000000000000000000B6
:10AAA00000000000000000000000000000000000A6
:10AAB0000000000000000000000000000000000096
:10AAC0000000000000000000000000000000000086
:10AAD0000000000000000000000000000000000076
:04000005000160C1D5
:00000001FF
